:100000000C9466000C947F000C947F000C947F008D
:100010000C947F000C947F000C947F000C947F0064
:100020000C947F000C947F000C947F000C947F0054
:100030000C947F000C947F000C947F000C947F0044
:100040000C947F000C947F000C947F000C947F0034
:100050000C947F000C947F000C947F000C947F0024
:100060000C947F000C947F000C947F000C947F0014
:100070000C947F000C947F000C947F000C947F0004
:100080000C947F000C947F000C947F000C947F00F4
:100090000C947F000C947F000C947F000C947F00E4
:1000A0000C947F000C947F000C947F000C947F00D4
:1000B0000C947F000C947F000C947F000C947F00C4
:1000C0000C947F000C947F000C947F0011241FBEC1
:1000D000CFEFD1E2DEBFCDBF00E00CBF12E0A0E069
:1000E000B2E0E8E3F1E000E00BBF02C007900D9240
:1000F000A030B107D9F70E9481000C949A000C94AB
:1001000000008FE787B98EE788B980E78AB983E175
:100110008BB950E820E931E04FE7499909C058B957
:1001200080E197E2F9013197F1F70197D9F7F5CF1F
:0801300048B9F3CFF894FFCFAA
:00000001FF
