:100000000C9466000C947F000C947F000C947F008D
:100010000C947F000C947F000C947F000C947F0064
:100020000C947F000C947F000C947F000C947F0054
:100030000C947F000C947F000C947F000C947F0044
:100040000C947F000C947F000C947F000C947F0034
:100050000C947F000C947F000C947F000C947F0024
:100060000C947F000C947F000C947F000C947F0014
:100070000C947F000C947F000C947F000C947F0004
:100080000C947F000C947F000C947F000C947F00F4
:100090000C947F000C947F000C947F000C947F00E4
:1000A0000C947F000C947F000C947F000C947F00D4
:1000B0000C947F000C947F000C947F000C947F00C4
:1000C0000C947F000C947F000C947F0011241FBEC1
:1000D000CFEFD1E2DEBFCDBF00E00CBF12E0A0E069
:1000E000B2E0EAE4F1E000E00BBF02C007900D923D
:1000F000A030B107D9F70E9481000C94A3000C94A2
:1001000000008FE787B98EE788B920E030E061E032
:1001100070E040E951E0CB01022E02C0880F991F28
:100120000A94E2F7809588B984EC99E0FA01319756
:10013000F1F70197D9F72F5F3F4F273031055CF377
:0A01400020E030E0E8CFF894FFCF94
:00000001FF
