:100000000C9475000C9496000C9496000C94960039
:100010000C9496000C9496000C9496000C94960008
:100020000C9496000C9496000C9496000C949600F8
:100030000C9496000C9496000C9496000C949600E8
:100040000C9496000C9496000C9496000C949600D8
:100050000C9496000C9496000C9496000C949600C8
:100060000C9496000C94B2070C9496000C94960095
:100070000C9496000C9496000C9496000C949600A8
:100080000C9496000C9496000C9496000C94960098
:100090000C940C030C9496000C9496000C9496000F
:1000A0000C9496000C9496000C9496000C94960078
:1000B0000C9496000C9496000C9496000C94960068
:1000C0000C9496000C9496000C94960005A84CCDC8
:1000D000B2D44EB93836A9020C50B9918688083C82
:1000E000A6AAAA2ABE000000803F11241FBECFEF9F
:1000F000D1E2DEBFCDBF00E00CBF13E0A0E0B2E074
:10010000E6E3F0E200E00BBF02C007900D92AE3DC7
:10011000B107D9F716E0AEEDB3E001C01D92A236EB
:10012000B107E1F70E940B010C94DD080C9400006C
:1001300081E090E00E94E403019721F480E092E0E6
:100140000E94F90882E090E00E94E403019721F404
:1001500085E192E00E94F90884E090E00E94E403C7
:10016000019721F488E292E00E94F90888E090E08B
:100170000E94E403019721F488E392E00E94F908C9
:1001800080E190E00E94E403019721F48CE492E086
:100190000E94F90880E290E00E94E403019721F4B4
:1001A0008CE592E00E94F90880E490E00E94E4036C
:1001B000019721F48CE692E00E94F90808958430BA
:1001C0009105A9F08530910534F48230910561F0F4
:1001D0000397E1F40FC08630910591F086309105C8
:1001E00064F0079799F40FC084E892E011C085EBA2
:1001F00092E00EC081EE92E00BC084E193E008C073
:1002000081E493E005C08CE693E002C085E993E0C9
:100210000E94F90808952F923F924F925F926F9239
:100220007F928F929F92AF92BF92CF92DF92EF9286
:10023000FF920F931F93DF93CF93CDB7DEB76497F1
:100240000FB6F894DEBF0FBECDBF60E071EE80E068
:1002500090E00E949E0380E090E061E070E00E94E8
:10026000CE05789481EB93E00E94F90897E0292E5F
:10027000312C2C0E3D1E5E010894A11CB11C6101A5
:1002800020E030E089010F5F1F4FD5010D931D93D2
:100290005D01B901882777FD8095982F0E942E0A6D
:1002A00028ED3FE049EC50E40E94BE0A20E030E037
:1002B00040E450E40E949309F601619371938193A5
:1002C00091936F01980103301105E1F68EEF90E0F4
:1002D00060E270E040E050E00E944C058EEF90E05C
:1002E0006EE170E040E052E00E944C0580E197E250
:1002F00020E931E0F9013197F1F70197D9F70F2E95
:10030000F0E0AF2EF0E0BF2EF0E0CF2EF0E0DF2ED9
:10031000F02DCE0107969C8B8B8B8EEF90E00E9488
:10032000D60383E890E00E94D90380E090E06EE17C
:1003300070E00E94DC0381E090E062E070E00E94E7
:10034000DC033E010894611C711C210182E0882EAF
:10035000912CD3016D917D913D01C4010E94DC037C
:10036000C601B501F20121913191419151912F01C5
:100370000E942F090E94210B20E030E040E85FE35B
:100380000E942F0920E030E040E054E40E94BE0AC1
:100390000E94FB097B018C0100D00F92EDB7FEB7E4
:1003A000319681ED93E0ADB7BEB712969C938E93D4
:1003B0001197F382E2820E94E0080F900F900F9055
:1003C0000F90C7010E94FE03BC01C40101960E9468
:1003D000DC03C7010E940204BC01C40102960E9412
:1003E000DC03A3E0B0E08A0E9B1EEB89FC896E164D
:1003F0007F0609F0AECF8DE090E00E94E1038AE035
:1004000090E00E94F2080E943B050E94D1038130D7
:10041000910519F40E94980002C00E94DF00C601F5
:10042000B5012BEF3DEA40E05DE30E942F095B013F
:100430006C0128ED3FE049EC50E40E94BA0A18161E
:1004400054F4C601B50128ED3FE049EC50E40E94A8
:100450002E095B016C0180E49CE90197F1F75DCF07
:10046000AC0120E030E00CC08091C80085FFFCCFDB
:10047000FA01E20FF31F80818093CE002F5F3F4F80
:10048000261737078CF30895DC0190915E04809164
:100490005F04981711F480E0089590915E048091B4
:1004A0005F04981719F420E030E017C090915E04C3
:1004B00080915F04981738F480915F0490915E04F6
:1004C000282F30E008C080915F0490915E04282FAF
:1004D00030E020583F4F291B3109A90162177307EB
:1004E0000CF4AB0120E030E020C090915E048091DC
:1004F0005F04981711F49FEF12C0E0915E04F0E0E2
:10050000E252FC4F908180915E048F3719F4109273
:100510005E0405C080915E048F5F80935E04FD01E0
:10052000E20FF31F90832F5F3F4F24173507ECF244
:10053000842F089590915E0480915F04981719F4B8
:1005400020E030E017C090915E0480915F0498171E
:1005500038F480915F0490915E04282F30E008C049
:1005600080915F0490915E04282F30E020583F4F27
:10057000291B3109C9010895482F90915E0480918B
:100580005F049817D1F090915E0480915F049817F2
:1005900038F480915F0490915E04282F30E008C009
:1005A00080915F0490915E04282F30E020583F4FE7
:1005B000291B31092F37310591F0E0915F04F0E0FC
:1005C000E252FC4F408380915F048F3719F4109200
:1005D0005F04089580915F048F5F80935F040895A6
:1005E00090915E0480915F04981711F4EFEF12C0B0
:1005F000E0915E04F0E0E252FC4FE08180915E0405
:100600008F3719F410925E0405C080915E048F5FED
:1006100080935E048E2F08951F920F920FB60F9253
:100620000BB60F9211242F933F934F935F936F93C9
:100630007F938F939F93AF93BF93EF93FF9380919B
:10064000CE000E94BC02FF91EF91BF91AF919F91AC
:100650008F917F916F915F914F913F912F910F906B
:100660000BBE0F900FBE0F901F901895DF93CF9386
:100670000F920F92CDB7DEB7982F8A3099F48DE0A4
:1006800089839A83FE0131969E012D5F3F4F8091B1
:10069000C80085FFFCCF81918093CE00E217F3075D
:1006A000B1F706C08091C80085FFFCCF9093CE00C3
:1006B00080E090E00F900F90CF91DF91089590919E
:1006C0005E0480915F049817D1F390915E0480914D
:1006D0005F04981738F480915F0490915E04282F8E
:1006E00030E008C080915F0490915E04282F30E0D4
:1006F00020583F4F291B3109232B09F390915E04A9
:1007000080915F04981711F4EFEF15C0E0915E043B
:10071000F0E0E252FC4FE08180915E048F3719F4E3
:1007200010925E0405C080915E048F5F80935E042A
:10073000ED3009F4EAE08E2F90E008950E942E0A31
:100740009B01AC0160E074E284EF99E40E9493099C
:100750000E94000A6150704022E42093C80028E9FA
:100760002093C90026E02093CA002FEF2093CE00EB
:1007700010925E0410925F04272F332727FD3A95CD
:100780002093CD006093CC007298739A86E393E037
:100790006FE573E00E94A50E90936104809360045E
:1007A00008958091D6039091D703089580936404AF
:1007B0000895809366040895FC01EE59FB4F65830C
:1007C000089580936504089520E030E09091060537
:1007D000982311F021E030E0C901089580910505CA
:1007E00090E00895FC01EE5FFA4F858190E0089556
:1007F000362F20E0280F391FC9010895282F30E037
:10080000C90108958070892F90E008950F931F9378
:10081000CF93DF9380914A0590914B05892B09F482
:10082000BBC0809164048E3F09F4ACC08091D603B4
:100830009091D703892B29F41092490586E0809383
:1008400048058091490590E06091480570E0681B7B
:10085000790B8E5F9A4F0E94850790914905980FFA
:100860009093490580914805981720F40E948F06BF
:10087000019771F070914905472F50E0DA01119707
:100880008A010250104060E0ED01CE5FDA4F18C0DF
:1008900080914905882309F072C086E090E074C019
:1008A000F901EE5FFA4F80818F3F19F481818F3F0C
:1008B00061F02017310719F488818F3F31F06F5FA5
:1008C000262F30E02A173B075CF36623A1F090E067
:1008D000421B530B08C0EE5FFA4FDF01A20FB31F9C
:1008E0008C9180839F5FE92FF0E0E417F5079CF37C
:1008F000761B70934905209149058091480528177A
:1009000030F190916404809104059817C1F56091CD
:1009100005056C5F60934805261790F4822F90E0E0
:1009200070E0681B790B8E5F9A4F0E94850790914B
:100930004905980F9093490580914805981738F01C
:1009400080910505A82FB0E020E090E00CC085E084
:1009500090E09093D7038093D6031EC0EE5FFA4FCA
:100960008281980F2F5FE22FF0E0AE17BF07B4F738
:10097000AE5FBA4F909513968C91891719F087E066
:1009800090E002C081E090E09093D7038093D6037B
:1009900010924B0510924A05DF91CF911F910F9154
:1009A00008951F9380914A0590914B05019709F492
:1009B00060C081E090E090934B0580934A05809160
:1009C0006504893940F490916604892F81508630FE
:1009D00028F0933819F084E090E031C08FEF8093D5
:1009E00062048093630480916504A82FB0E020E046
:1009F00090E005C0EE59FB4F8281980F2F5FE22FE8
:100A0000F0E0AE17BF07B4F7AE59BB4F9095139601
:100A10009C938091D6039091D7030697029710F488
:100A20000E945506109165041C5F82E694E0612FD8
:100A300070E00E945A06181759F082E090E09093F7
:100A4000D7038093D60310924B0510924A0511C02C
:100A500080916604823029F48091680490E00696C3
:100A600002C086E090E00E947E061092D7031092AA
:100A7000D6031F9108950E94D1048091D6039091CE
:100A8000D703892B41F40E9406048091D6039091EC
:100A9000D7030597C1F30895282F80914A059091B7
:100AA0004B05892B99F42093640483E080936604BA
:100AB00060936704CA01409368048070909369044E
:100AC00085E0809365040E943B050895FFCF282FA1
:100AD00080914A0590914B05892BB9F420936404C9
:100AE00082E080936604609367048093680484E0E6
:100AF000809365040E943B053091080520E08091B9
:100B00000705280F311DC9010895FFCF282F8091B7
:100B10004A0590914B05892B79F42093640483E076
:100B200080936604609367044093680484E0809334
:100B300065040E943B050895FFCF282F80914A0548
:100B400090914B05892B99F42093640482E0809363
:100B500066046093670481E08093680484E0809376
:100B600065040E943B058091070590E00895FFCF42
:100B7000282F80914A0590914B05892B59F4209399
:100B8000640481E08093660482E0809365040E949F
:100B90003B050895FFCF0E94540608950F931F93BD
:100BA0008C016F5F7F4F882777FD8095982F0E947B
:100BB0002E0A9B01AC0160E074E284EF99E40E948C
:100BC0009309AB01BC01C8010E94FB05892B19F4F4
:100BD00020E030E00CC081E090E09093D703809358
:100BE000D60310924B0510924A0521E030E0C9016E
:100BF0001F910F910895EF92FF920F931F937A0127
:100C00008B0182E48093C00088E98093C10086E074
:100C10008093C20060E074E284EF99E4A801970138
:100C20000E9493090E94000A615070407093C500B1
:100C30006093C40060E074E284E799E4A80197013E
:100C40000E94930920E030E040E451E40E94BE0A93
:100C500060935606709357068093580690935906F2
:100C600020915606309157064091580650915906EA
:100C700060E070E08AE793E40E9493090E94000A12
:100C800070935506609354067298739A8FEF809311
:100C9000C60010924C0610924D0681E090E01F9124
:100CA0000F91FF90EF900895089580914D068093E5
:100CB0004C060895AC01F8947398729A20E030E0E5
:100CC00011C08091C00085FFFCCF8091C00080647E
:100CD0008093C000FA01E20FF31F80818093C60069
:100CE0002F5F3F4F2617370764F38091C00086FFC0
:100CF000FCCF7298739A7894C901089510925D069A
:100D000010925C062091540630915506265F3F4FA5
:100D1000280F391F30935B0620935A060895AF922F
:100D2000BF92CF92DF92EF92FF920F931F93809129
:100D30005C0690915D06019690935D0680935C063B
:100D400020915C0630915D0680915A0690915B0679
:100D50008217930718F421E030E074C0A090560683
:100D6000B0905706C0905806D0905906C601B501FC
:100D70002BEA3AEA4AEA50E40E94BE0A7B018C015F
:100D800020E030E040E85FE30E94DC07882314F4B1
:100D900061E054C0C801B70120E030E04FE753E400
:100DA0000E94BA0A18160CF045C0C601B50120E031
:100DB00030E04AE754E40E9493095B016C0120E0B3
:100DC00030E04AE755E40E94BE0A7B018C0120E036
:100DD00030E040E85FE30E94DC0788231CF461E018
:100DE00070E024C0C801B70120E03FEF4FE757E4AF
:100DF0000E94BA0A1816B4F4C601B50120E030E02A
:100E000040E251E40E94BE0A0E94000A80E991E09B
:100E100005C0FC013197F1F7615070406115710513
:100E2000C1F70EC0C801B7010E94000ACB010197AB
:100E3000F1F706C0C801B7010E94000A6A95F1F7F0
:100E400020E030E0C9011F910F91FF90EF90DF90FB
:100E5000CF90BF90AF90089590914C0680914D0631
:100E6000981719F420E030E017C090914C0680915B
:100E70004D06981738F480914D0690914C06282F16
:100E800030E008C080914D0690914C06282F30E04C
:100E900020503F4F291B3109C90108951F93182F76
:100EA0000E942C078F3F910591F0E0914D06F0E0F4
:100EB000E45BFA4F108380914D068F3F19F4109236
:100EC0004D0605C080914D068F5F80934D061F91A2
:100ED000089590914C0680914D06981711F4EFEF0C
:100EE00012C0E0914C06F0E0E45BFA4FE0818091A3
:100EF0004C068F3F19F410924C0605C080914C06A9
:100F00008F5F80934C068E2F0895EF92FF920F9380
:100F10001F93CF93DF937C01EB0190914C0680915E
:100F20004D06981719F400E010E014C00E942C0739
:100F30008C01C817D9070CF48E01C0E0D0E007C0BF
:100F40000E946907F701EC0FFD1F80832196C017EF
:100F5000D107B4F3C801DF91CF911F910F91FF909A
:100F6000EF9008951F920F920FB60F920BB60F924B
:100F700011242F933F934F935F936F937F938F939E
:100F80009F93AF93BF93EF93FF938091C6000E940E
:100F90004E07FF91EF91BF91AF919F918F917F91FC
:100FA0006F915F914F913F912F910F900BBE0F90DA
:100FB0000FBE0F901F901895A8E1B0E0E2EEF7E0A9
:100FC0000C947A0E69837A838B839C832D833E8372
:100FD0004F83588789E0E82EF12CEC0EFD1ECE01E0
:100FE0000196B7010E940C088E010F5E1F4FCE01C3
:100FF0000596B8010E940C088985823040F08989E5
:10100000823028F0C701B8010E94840801C081E045
:101010006896E6E00C94960EFC01DB01408151815C
:101020002281622F6F7770E0221F2227221F938177
:10103000892F880F822B282F30E0991F9927991F1D
:1010400011969C93119721153105A9F5411551056C
:101050006105710511F482E037C082E89FEF1396B5
:101060009C938E9312979A01AB0167E0220F331F76
:10107000441F551F6A95D1F783E08C930DC0220F52
:10108000331F441F551F12968D919C911397019702
:1010900013969C938E931297203080E0380780E05F
:1010A000480780E4580758F314962D933D934D93C9
:1010B0005C93179708952F3F310579F44115510539
:1010C0006105710519F484E08C93089564FF03C0F1
:1010D00081E08C9312C01C9210C02F5730401396A1
:1010E0003C932E93129783E08C9387E0440F551F17
:1010F000661F771F8A95D1F7706414964D935D93A0
:101100006D937C93179708951F93DC01FB019C91CD
:10111000923008F447C08081823008F443C0943094
:1011200051F411961C91843099F58181682F70E0FB
:10113000611B71093FC0843021F0923031F482305C
:10114000B9F18181882389F12DC011961C911197E5
:101150008230F1F081811817D9F412962D913C91CB
:101160001397828193818217930794F02817390788
:10117000BCF014968D919D910D90BC91A02D248171
:10118000358146815781281739074A075B0718F4CC
:10119000112341F00AC082179307A407B50740F452
:1011A000112319F061E070E005C06FEF7FEF02C01E
:1011B00060E070E0CB011F910895F8940C94191031
:1011C000DF93CF93CDB7DEB7FE0136966191719173
:1011D0008091500690915106AF010E94270BCF914C
:1011E000DF91089560915006709151060E94430D61
:1011F00008950F931F93CF93DF938C01E0915006D6
:10120000F0915106838181FF21C0C0E0D0E00DC084
:10121000E0915006F091510620853185BF01F9011A
:101220001995892B11F0CFEFDFEFF80181918F0134
:10123000882371F7E0915006F091510620853185A1
:101240008AE0BF01F9011995892B11F0CFEFDFEF8B
:10125000CE01DF91CF911F910F9108955058BB2778
:10126000AA270ED04DC13ED130F043D120F031F449
:101270009F3F11F41EF433C10EF4E095E7FB29C142
:10128000E92F4FD180F3BA176207730784079507D8
:1012900018F071F49EF567C10EF4E0950B2EBA2F8D
:1012A000A02D0B01B90190010C01CA01A00111246C
:1012B000FF27591B99F0593F50F4503E68F11A1618
:1012C000F040A22F232F342F4427585FF3CF4695A9
:1012D00037952795A795F0405395C9F77EF41F16CB
:1012E000BA0B620B730B840BBAF09150A1F0FF0F95
:1012F000BB1F661F771F881FC2F70EC0BA0F621F81
:10130000731F841F48F4879577956795B795F79570
:101310009E3F08F0B3CF9395880F08F09927EE0F02
:101320009795879508950CD0EBC0E3D040F0DAD0C4
:1013300030F021F45F3F19F0CCC0511115C1CFC07E
:10134000F0D098F39923C9F35523B1F3951B550BAE
:10135000BB27AA2762177307840738F09F5F5F4F88
:10136000220F331F441FAA1FA9F333D00E2E3AF0C9
:10137000E0E830D091505040E695001CCAF729D0E3
:10138000FE2F27D0660F771F881FBB1F2617370732
:101390004807AB07B0E809F0BB0B802DBF01FF2762
:1013A00093585F4F2AF09E3F510568F092C0DCC011
:1013B0005F3FECF3983EDCF3869577956795B7959C
:1013C000F7959F5FC9F7880F911D9695879597F9B7
:1013D0000895E1E0660F771F881FBB1F6217730730
:1013E0008407BA0720F0621B730B840BBA0BEE1F45
:1013F00088F7E095089504D06894B111B5C00895B8
:1014000098D088F09F5790F0B92F9927B751A0F046
:10141000D1F0660F771F881F991F1AF0BA95C9F788
:1014200012C0B13081F09FD0B1E008959CC0672F09
:10143000782F8827B85F39F0B93FCCF38695779538
:101440006795B395D9F73EF4909580957095619521
:101450007F4F8F4F9F4F0895E89409C097FB3EF44C
:1014600090958095709561957F4F8F4F9F4F9923F1
:10147000A9F0F92F96E9BB279395F695879577956F
:101480006795B795F111F8CFFAF4BB0F11F460FF2F
:101490001BC06F5F7F4F8F4F9F4F16C0882311F087
:1014A00096E911C0772321F09EE8872F762F05C09B
:1014B000662371F096E8862F70E060E02AF09A9536
:1014C000660F771F881FDAF7880F9695879597F92B
:1014D000089597F99F6780E870E060E008959FEFB6
:1014E00080EC089500240A941616170618060906BB
:1014F000089500240A94121613061406050608958A
:10150000092E0394000C11F4882352F0BB0F40F411
:10151000BF2B11F460FF04C06F5F7F4F8F4F9F4F51
:10152000089557FD9058440F551F59F05F3F71F0D3
:101530004795880F97FB991F61F09F3F79F087953A
:101540000895121613061406551FF2CF4695F1DFC3
:1015500008C0161617061806991FF1CF8695710553
:10156000610508940895E894BB2766277727CB0187
:1015700097F9089512D308F48FEF08950BD0C0CFD8
:10158000B1DF28F0B6DF18F0952309F0A2CFA7CF7E
:101590001124EACFC6DFA0F3959FD1F3950F50E059
:1015A000551F629FF001729FBB27F00DB11D639F15
:1015B000AA27F00DB11DAA1F649F6627B00DA11DBB
:1015C000661F829F2227B00DA11D621F739FB00D61
:1015D000A11D621F839FA00D611D221F749F3327D1
:1015E000A00D611D231F849F600D211D822F762F6A
:1015F0006A2F11249F5750408AF0E1F088234AF067
:10160000EE0FFF1FBB1F661F771F881F91505040B2
:10161000A9F79E3F510570F05CCFA6CF5F3FECF37A
:10162000983EDCF3869577956795B795F795E7959E
:101630009F5FC1F7FE2B880F911D9695879597F9AF
:1016400008959F93CFD20F9007FCEE5FF2C22F92C6
:101650003F924F925F926F927F928F929F92AF9242
:10166000BF92CF92DF92EF92FF920F931F93DF937F
:10167000CF93CDB7DEB72B970FB6F894DEBF0FBE72
:10168000CDBF3C012B015A01FC01178216828381D8
:1016900081FD03C06FEF7FEFC6C19AE0892E1E0166
:1016A0000894211C311CF3012381F20123FD859153
:1016B00023FF81912F01882309F4B2C1853239F4C7
:1016C00023FD859123FF81912F01853229F490E03C
:1016D000B3010E94430DE7CF982FFF24EE249924F5
:1016E000FFE1FF15D0F09B3269F09C3228F4903274
:1016F00059F0933291F40EC09D3249F0903369F461
:1017000041E024C052E0F52A84E0F82A28C098E09D
:10171000F92A25C0E0E1FE2A22C0F7FC29C0892F62
:1017200080538A3070F4F6FE05C0989C902C1124EA
:10173000980E15C0E89CE02C1124E80EF0E2FF2A78
:101740000EC09E3229F4F6FC6BC140E4F42A07C0B7
:101750009C3619F450E8F52A02C0983649F4F20193
:1017600023FD959123FF91912F01992309F0B8CF83
:10177000892F8554833018F08052833038F444E048
:1017800050E0A40EB51E5FE359830FC0933631F0CD
:10179000933779F0933509F056C020C0F501808168
:1017A000898342E050E0A40EB51E610101E010E023
:1017B00012C0F501C080D180F6FC03C06FEF7FEF4F
:1017C00002C0692D70E042E050E0A40EB51EC601D3
:1017D0000E94380D8C015FE7F52214C0F501C0802E
:1017E000D180F6FC03C06FEF7FEF02C0692D70E07F
:1017F00042E050E0A40EB51EC6010E942D0D8C01E2
:1018000050E8F52AF3FE07C01AC080E290E0B30169
:101810000E94430DEA948E2D90E008171907A8F353
:101820000EC0F601F7FC8591F7FE81916F0190E003
:10183000B3010E94430DE110EA94015010400115DC
:10184000110579F7EAC0943611F0993669F5F7FE7B
:1018500008C0F501208131814281538184E090E00C
:101860000AC0F501808191819C01442737FD409594
:10187000542F82E090E0A80EB91E9FE6F92257FF90
:1018800009C050954095309521953F4F4F4F5F4F80
:10189000E0E8FE2ACA01B901A1012AE030E00E9475
:1018A0006F0DD82ED21840C0953729F41F2D1F7EFA
:1018B0002AE030E01DC01F2D197F9F3661F0903760
:1018C00020F4983509F0ACC00FC0903739F0983744
:1018D00009F0A6C004C028E030E00AC0106114FD81
:1018E000146020E130E004C014FD166020E132E015
:1018F00017FF08C0F501608171818281938144E006
:1019000050E008C0F50180819181BC0180E090E049
:1019100042E050E0A40EB51EA1010E946F0DD82E2A
:10192000D2188FE7F82EF122F6FE0BC05EEFF522FB
:10193000D91438F4F4FE07C0F2FC05C08FEEF8228B
:1019400002C01D2D01C0192DF4FE0DC0FE01ED0DCC
:10195000F11D8081803319F499EEF92208C01F5FD0
:10196000F2FE05C003C08F2D867809F01F5F0F2D92
:10197000F3FC14C0F0FE0FC01E1510F09D2C0BC020
:101980009D2C9E0C911A1E2D06C080E290E0B301A2
:101990000E94430D1F5F1E15C0F304C01E1510F4F6
:1019A000E11A01C0EE2404FF0FC080E390E0B30110
:1019B0000E94430D02FF1DC001FD03C088E790E0B7
:1019C0000EC088E590E00BC0802F867891F001FF73
:1019D00002C08BE201C080E2F7FC8DE290E0B3012F
:1019E0000E94430D06C080E390E0B3010E94430DC6
:1019F0009A94D914C0F3DA94F101ED0DF11D8081B0
:101A000090E0B3010E94430DDD20A9F706C080E2FB
:101A100090E0B3010E94430DEA94EE20C1F743CE5B
:101A2000F30166817781CB012B960FB6F894DEBF68
:101A30000FBECDBFCF91DF911F910F91FF90EF901F
:101A4000DF90CF90BF90AF909F908F907F906F90DE
:101A50005F904F903F902F900895FC01059061504A
:101A600070400110D8F7809590958E0F9F1F0895B4
:101A7000FC016150704001900110D8F7809590955D
:101A80008E0F9F1F08950F931F93CF93DF938C01A9
:101A9000EB018B8181FF1BC082FF0DC02E813F8136
:101AA0008C819D812817390764F4E881F9810193BD
:101AB000F983E88306C0E885F985802F1995892B7D
:101AC00031F48E819F8101969F838E8302C00FEF38
:101AD0001FEFC801DF91CF911F910F910895FA0177
:101AE000AA27283051F1203181F1E8946F936E7F5D
:101AF0006E5F7F4F8F4F9F4FAF4FB1E03ED0B4E04E
:101B00003CD0670F781F891F9A1FA11D680F791F8E
:101B10008A1F911DA11D6A0F711D811D911DA11D9F
:101B200020D009F468943F912AE0269F11243019AF
:101B3000305D3193DEF6CF010895462F4770405D4A
:101B40004193B3E00FD0C9F7F6CF462F4F70405DF9
:101B50004A3318F0495D31FD4052419302D0A9F754
:101B6000EACFB4E0A6959795879577956795BA954E
:101B7000C9F700976105710508959B01AC010A2E14
:101B800006945795479537952795BA95C9F7620FEB
:101B9000731F841F951FA01D0895990F0008550FEE
:101BA000AA0BE0E8FEEF16161706E807F907C0F0E3
:101BB00012161306E407F50798F0621B730B840BEB
:101BC000950B39F40A2661F0232B242B252B21F4C5
:101BD00008950A2609F4A140A6958FEF811D811D65
:101BE00008957DCCA6DCE8F3E894E0E0BB279F579E
:101BF000F0F02AED3FE049EC06C0EE0FBB0F661F88
:101C0000771F881F28F0B23A62077307840728F00D
:101C1000B25A620B730B840BE3959A9572F7803876
:101C200030F49A95BB0F661F771F881FD2F7904834
:101C300013C0EF93E0FF06C0A2EA2AED3FE049ECB3
:101C40005FEB1EDB5DDC0F90039401FC9058ECEC25
:101C5000F0E00EC09F3F31F0915020F487957795CA
:101C60006795B795880F911D9695879597F9089573
:101C70009F938F937F936F93FF93EF939B01AC019F
:101C80007DDCEF91FF9105D02F913F914F915F91B6
:101C900075CCDF93CF931F930F93FF92EF92DF9258
:101CA0007B018C01689405C0DA2EEF0173DCFE0124
:101CB000E894A5912591359145915591AEF3EF01A9
:101CC000DFDAFE019701A801DA9479F7DF90EF904F
:101CD000FF900F911F91CF91DF9108952F923F9226
:101CE0004F925F926F927F928F929F92AF92BF922C
:101CF000CF92DF92EF92FF920F931F93CF93DF93D8
:101D0000CDB7DEB7CA1BDB0B0FB6F894DEBF0FBE34
:101D1000CDBF19942A88398848885F846E847D8471
:101D20008C849B84AA84B984C884DF80EE80FD8083
:101D30000C811B81AA81B981CE0FD11D0FB6F894F9
:101D4000DEBF0FBECDBFED0108950F931F93CF935C
:101D5000DF938C01EB01009731F46115710519F4E3
:101D600020E030E038C081E090E06EE070E00E945A
:101D7000F10EFC019C01009771F180E883832097AC
:101D800071F0D387C28781E8838380914E0690915A
:101D90004F06892B21F4F0934F06E0934E06011570
:101DA0001105C9F011870087838182608383809148
:101DB000500690915106892B71F4F0935106E093EF
:101DC00050068091520690915306892B21F4F0938E
:101DD0005306E0935206C901DF91CF911F910F91F5
:101DE00008950F931F93CF93DF93689F8001699F9E
:101DF000100D789F100D1124C8010E940D0FEC01E9
:101E0000009729F060E070E0A8010E941210CE0156
:101E1000DF91CF911F910F910895CF93DF93BC0174
:101E20008230910510F462E070E0A0916006B091FC
:101E30006106ED01E0E0F0E040E050E021C0888183
:101E400099818617970769F48A819B81309719F0E9
:101E50009383828304C09093610680936006FE01A1
:101E600034C06817790738F44115510519F0841703
:101E7000950708F4AC01FE018A819B819C01E90170
:101E80002097E9F641155105A9F1CA01861B970B68
:101E9000049708F4BA01E0E0F0E02AC08D919C912B
:101EA000119784179507F9F46417750781F4129652
:101EB0008D919C911397309719F09383828304C07E
:101EC0009093610680936006FD0132964FC0CA016F
:101ED000861B970BFD01E80FF91F61937193029721
:101EE0008D939C9343C0FD01828193819C01D90114
:101EF0001097A1F680915E0690915F06892B41F4C0
:101F00008091DA039091DB0390935F0680935E06E5
:101F10004091DC035091DD034115510541F44DB76B
:101F20005EB78091D8039091D903481B590B20913B
:101F30005E0630915F0624173507B0F4CA01821B94
:101F4000930B8617970780F0AB014E5F5F4F8417A6
:101F5000950750F0420F531F50935F0640935E0663
:101F6000F9016193719302C0E0E0F0E0CF01DF91ED
:101F7000CF910895CF93DF93009709F450C0EC01FF
:101F800022971B821A82A0916006B0916106109779
:101F900009F140E050E0AC17BD0708F1BB83AA830C
:101FA000FE0121913191E20FF31FAE17BF0779F4C3
:101FB0008D919C911197280F391F2E5F3F4F3983C8
:101FC000288312968D919C9113979B838A83411548
:101FD000510571F4D0936106C093600620C012963B
:101FE0008D919C911397AD01009711F0DC01D3CF37
:101FF000FA01D383C28321913191E20FF31FCE17EF
:10200000DF0769F488819981280F391F2E5F3F4FC0
:10201000FA01318320838A819B8193838283DF91BC
:10202000CF910895DC0101C06D9341505040E0F71D
:062030000895F894FFCFB3
:10203600496E70757420766F6C7461676520657281
:10204600726F722100416E676C65206C696D6974F0
:10205600206572726F7221004F76657268656174D1
:10206600206572726F7221004F7574206F66207240
:10207600616E6765206572726F72210043686563E1
:102086006B73756D206572726F7221004F76657283
:102096006C6F6164206572726F722100496E737491
:1020A60072756374696F6E20636F64652065727202
:1020B6006F722100434F4D4D5F54584641494C3A8B
:1020C600204661696C6564207472616E736D697413
:1020D60020696E737472756374696F6E20706163C4
:1020E6006B65742100434F4D4D5F54584552524F16
:1020F600523A20496E636F727265637420696E731B
:102106007472756374696F6E207061636B65742198
:1021160000434F4D4D5F52584641494C3A20466167
:10212600696C6564206765742073746174757320C7
:102136007061636B65742066726F6D206465766985
:1021460063652100434F4D4D5F52585741495449ED
:102156004E473A204E6F7720726563696576696EE1
:102166006720737461747573207061636B65742185
:1021760000434F4D4D5F525854494D454F55543AC3
:10218600205468657265206973206E6F20737461D0
:10219600747573207061636B65742100434F4D4DF8
:1021A6005F5258434F52525550543A20496E636F0E
:1021B60072726563742073746174757320706163E1
:1021C6006B657421005468697320697320756E6BA2
:1021D6006E6F776E206572726F7220636F64652111
:1021E600000A0A53796E63577269746520657861CF
:1021F6006D706C6520666F7220434D2D3531300A47
:0E220600002564202000010020006206000078
:00000001FF
