:100000000C9466000C947F000C947F000C947F008D
:100010000C947F000C947F000C947F000C947F0064
:100020000C947F000C947F000C947F000C947F0054
:100030000C947F000C947F000C947F000C947F0044
:100040000C947F000C947F000C947F000C947F0034
:100050000C947F000C947F000C947F000C947F0024
:100060000C947F000C947F000C947F000C947F0014
:100070000C947F000C947F000C947F000C947F0004
:100080000C947F000C947F000C947F000C947F00F4
:100090000C947F000C947F000C947F000C947F00E4
:1000A0000C947F000C947F000C947F000C947F00D4
:1000B0000C947F000C947F000C947F000C947F00C4
:1000C0000C947F000C947F000C947F0011241FBEC1
:1000D000CFEFD1E2DEBFCDBF00E00CBF12E0A0E069
:1000E000B2E0E0E4F1E000E00BBF02C007900D9247
:1000F000A030B107D9F70E9481000C949E000C94A7
:10010000000080E284B915B88FE787B98EE788B917
:1001100080E78AB981E18BB950E820EA3FE04FE7F8
:10012000489909C058B9C9010197F1F72D9AC90139
:100130000197F1F701C048B92D98F2CFF894FFCF9D
:00000001FF
