:100000000C9466000C9487000C9487000C94870075
:100010000C9487000C9487000C9487000C94870044
:100020000C9487000C9487000C9487000C94870034
:100030000C9487000C9487000C9487000C94870024
:100040000C9487000C94EA010C941F020C94540247
:100050000C9487000C9487000C9487000C94870004
:100060000C9487000C9487000C9487000C948700F4
:100070000C9487000C9487000C9487000C948700E4
:100080000C9487000C9487000C9487000C948700D4
:100090000C9445040C9487000C9487000C94870002
:1000A0000C9487000C9487000C9487000C948700B4
:1000B0000C9487000C9487000C9487000C948700A4
:1000C0000C9487000C9487000C94870011241FBEA9
:1000D000CFEFD1E2DEBFCDBF00E00CBF13E0A0E068
:1000E000B2E0EEE1F0E200E00BBF02C007900D923B
:1000F000A634B107D9F713E0A6E4B3E001C01D921E
:10010000A43DB107E1F70E9489000C940D100C94F6
:100110000000DF93CF93CDB7DEB70E94890280E065
:1001200090E0CF91DF910895DF93CF93CDB7DEB705
:100130000F920F92EDB7FEB7319680E092E0918377
:1001400080830E942D0C0F900F90CF91DF91089526
:10015000DF93CF93CDB7DEB762970FB6F894DEBFCB
:100160000FBECDBF1A8A198A188A1F86ADE2B0E089
:10017000EDE2F0E080818F7E8C93ADE2B0E0EDE2C5
:10018000F0E080818F7B8C93AEE2B0E0EEE2F0E0B5
:10019000808180618C93AEE2B0E0EEE2F0E080819D
:1001A00080648C93A7E2B0E0E7E2F0E080818061B8
:1001B0008C93A7E2B0E0E7E2F0E0808180648C936A
:1001C00084E090E00E947E019A8B898B86E090E02B
:1001D0000E947E01988B8F8789899A89009741F4C4
:1001E000A8E2B0E0E8E2F0E0908180E189278C931A
:1001F0008F859889009741F4A8E2B0E0E8E2F0E04A
:1002000080818F7B8C9307C0A8E2B0E0E8E2F0E049
:10021000808180648C9380E090E0A8ECB2E48B87CE
:100220009C87AD87BE876B857C858D859E8520E00C
:1002300030E04AE755E40E948B06DC01CB018F8356
:100240009887A987BA876F81788589859A8520E004
:1002500030E040E85FE30E94910888232CF481E0BD
:1002600090E09E838D833FC06F81788589859A85D4
:1002700020E03FEF4FE757E40E94310818164CF595
:100280006B857C858D859E8520E030E040E251E4E1
:100290000E948B06DC01CB01BC01CD010E94B5049C
:1002A000DC01CB019E838D830FC080E991E09C83AC
:1002B0008B838B819C810197F1F79C838B838D814C
:1002C0009E8101979E838D838D819E81009769F722
:1002D00077CF6F81788589859A850E94B504DC0186
:1002E000CB019E838D838D819E819A8389838981B1
:1002F0009A810197F1F79A83898362CFDF93CF9335
:1003000000D00F92CDB7DEB79C838B83ADE2B0E017
:10031000EDE2F0E08081282F81E090E00B8002C0C8
:10032000880F991F0A94E2F7809582238C93ECE260
:10033000F0E08081282F30E081E090E00B8002C067
:10034000880F991F0A94E2F7822393239A83898363
:1003500089819A810F900F900F900F90CF91DF912C
:100360000895DF93CF93CDB7DEB7A7E2B0E0E7E221
:10037000F0E0808180618C93A7E2B0E0E7E2F0E0FA
:10038000808180628C93A7E2B0E0E7E2F0E08081B8
:1003900080648C93E1E8F0E084E08083E8E8F0E0BA
:1003A00088ED94E091838083EAE8F0E088E893E1C7
:1003B00091838083ECE8F0E080E197E29183808391
:1003C000EFE6F0E08EE08083E4E8F0E01182108256
:1003D0007894FFCF1F920F920FB60F9200905B00A0
:1003E0000F9211248F939F93AF93BF93EF93FF933B
:1003F000DF93CF93CDB7DEB7A8E2B0E0E8E2F0E05C
:10040000908180E189278C93A8E8B0E0E8E8F0E0EB
:100410008081918188529B4F11969C938E93CF91AE
:10042000DF91FF91EF91BF91AF919F918F910F90CD
:1004300000925B000F900FBE0F901F9018951F92B7
:100440000F920FB60F9200905B000F9211248F93C2
:100450009F93AF93BF93EF93FF93DF93CF93CDB76A
:10046000DEB7A8E2B0E0E8E2F0E0908180E2892720
:100470008C93AAE8B0E0EAE8F0E0808191818857A7
:100480009C4E11969C938E93CF91DF91FF91EF91AB
:10049000BF91AF919F918F910F9000925B000F9051
:1004A0000FBE0F901F9018951F920F920FB60F92CC
:1004B00000905B000F9211248F939F93AF93BF9393
:1004C000EF93FF93DF93CF93CDB7DEB7A8E2B0E011
:1004D000E8E2F0E0908180E489278C93ACE8B0E01A
:1004E000ECE8F0E080819181805F984D11969C93BB
:1004F0008E93CF91DF91FF91EF91BF91AF919F913B
:100500008F910F9000925B000F900FBE0F901F9085
:100510001895DF93CF9300D0CDB7DEB71B821A8238
:1005200060E071EE80E090E00E94D00278940F923B
:100530000F92EDB7FEB7319682E192E0918380830E
:100540000E942D0C0F900F908091CA039091CB03C5
:100550000E94EB0B89838981853731F48A819B81E5
:1005600001969B838A8308C08981843629F48A8115
:100570009B8101979B838A8300D00F92EDB7FEB7D2
:10058000319682E392E0918380838A819B81938379
:1005900082830E942D0C0F900F900F900F90D4CF5C
:1005A000DF93CF9300D000D0CDB7DEB76B837C83D1
:1005B0008D839E836B817C818D819E810E94C10889
:1005C0009B01AC0160E074E284EF99E40E9485072E
:1005D000DC01CB01BC01CD010E94B504DC01CB01E3
:1005E00001979A838983E8ECF0E082E48083E9EC68
:1005F000F0E088E98083EAECF0E086E08083EEECCE
:10060000F0E08FEF80831092C6031092C703EDECE9
:10061000F0E089819A81892F990F990B8083ECEC06
:10062000F0E089818083AEE2B0E0EEE2F0E080812C
:100630008B7F8C93AEE2B0E0EEE2F0E080818860E8
:100640008C9388E794E02CE934E0B9010E949F0B79
:100650009093C9038093C80326960FB6F894DEBF23
:100660000FBECDBFCF91DF910895DF93CF9300D020
:1006700000D0CDB7DEB79C838B837E836D831A82D7
:10068000198219C0E8ECF0E08081882F90E0807238
:1006900090700097B9F3AEECB0E029813A818B817C
:1006A0009C81FC01E20FF31F80818C9389819A81E8
:1006B00001969A83898329813A818D819E812817A9
:1006C000390704F326960FB6F894DEBF0FBECDBFF0
:1006D000CF91DF9108950F931F93DF93CF93CDB701
:1006E000DEB729970FB6F894DEBF0FBECDBF9E834D
:1006F0008D8378876F839091C6038091C703981785
:1007000011F419862BC00E94BA039A838983298128
:100710003A818F8198858217930724F48F81988579
:100720009A8389831C821B8210C02B813C818D811E
:100730009E818C01020F131F0E941904F80180830F
:100740008B819C8101969C838B832B813C81898149
:100750009A81281739074CF3F981F98789852996F9
:100760000FB6F894DEBF0FBECDBFCF91DF911F91C2
:100770000F910895DF93CF930F920F92CDB7DEB70D
:100780009091C6038091C703981719F41A821982B1
:1007900025C09091C6038091C703981778F4809183
:1007A000C703282F30E08091C603882F90E0A9016D
:1007B000481B590BCA019A83898310C08091C703D3
:1007C000282F30E08091C603882F90E0A901481BB4
:1007D000590BCA0180589F4F9A83898389819A81D6
:1007E0000F900F90CF91DF910895DF93CF930F92E9
:1007F000CDB7DEB789830E94BA038F379105A9F080
:100800008091C703882F90E0FC01EA5BFC4F89814F
:1008100080838091C7038F3719F41092C70305C0F6
:100820008091C7038F5F8093C7030F90CF91DF91B3
:100830000895DF93CF930F920F92CDB7DEB79091CB
:10084000C6038091C703981719F48FEF8A8317C0E6
:100850008091C603882F90E0FC01EA5BFC4F808109
:1008600089838091C6038F3719F41092C60305C09F
:100870008091C6038F5F8093C60389818A838A81B2
:100880000F900F90CF91DF9108951F920F920FB6A6
:100890000F9200905B000F9211242F933F934F9380
:1008A0005F936F937F938F939F93AF93BF93EF93D8
:1008B000FF93DF93CF93CDB7DEB7EEECF0E080810E
:1008C0000E94F503CF91DF91FF91EF91BF91AF911E
:1008D0009F918F917F916F915F914F913F912F9158
:1008E0000F9000925B000F900FBE0F901F90189515
:1008F000DF93CF9300D0CDB7DEB78B838B818A3067
:1009000059F48DE089838AE08A83CE01019662E002
:1009100070E00E94350308C08B818983CE01019667
:1009200061E070E00E94350380E090E00F900F904E
:100930000F90CF91DF910895DF93CF930F92CDB7B2
:10094000DEB70E94BA030097E1F30E94190489837D
:1009500089818D3011F48AE089838981992787FD07
:1009600090950F90CF91DF910895EF92FF920F93A2
:100970001F937B018C0120E030E040E05FE40E94A7
:10098000610888238CF0C801B70120E030E040E026
:100990005FE40E942D060E941F099B01AC012050BC
:1009A00030404040504806C0C801B7010E941F09AE
:1009B0009B01AC01B901CA011F910F91FF90EF900B
:1009C0000895A0E0B0E0E7EEF4E00C94680BDC01E1
:1009D0002B01FA019C91923008F439C1EB01888116
:1009E000823008F433C1943069F4843009F02FC1A7
:1009F00011969C9111978981981709F428C1A7E352
:100A0000B2E025C1843009F421C18230A9F49230CA
:100A100009F01DC19A01AD0188E0EA010990AE011B
:100A2000E90109929E018150C1F7E2018981119685
:100A30009C918923818308C1923009F407C11296E1
:100A40002D903C901397EB018A819B811496AD9079
:100A5000BD90CD90DC901797EC80FD800E811F81BA
:100A60009101281B390BB90137FF04C0662777278E
:100A7000621B730B603271050CF061C01216130615
:100A80006CF537014801062E04C09694879477943C
:100A900067940A94D2F721E030E040E050E004C0CF
:100AA000220F331F441F551F6A95D2F72150304043
:100AB000404050402E213F21402351232115310534
:100AC0004105510521F021E030E040E050E079019E
:100AD0008A01E628F728082919293CC0232BD1F1DF
:100AE000260E371E35014601062E04C096948794C3
:100AF000779467940A94D2F721E030E040E050E028
:100B000004C0220F331F441F551F6A95D2F721508E
:100B10003040404050402A213B214C215D2121158D
:100B200031054105510521F021E030E040E050E081
:100B300059016A01A628B728C828D9280BC08215F0
:100B400093052CF01C01AA24BB24650103C0EE24EC
:100B5000FF24870111969C91D20111968C919817D0
:100B600009F445C0992339F0A80197012A193B09D6
:100B70004C095D0906C0A60195012E193F09400BDD
:100B8000510B57FD08C011823382228224833583A2
:100B9000468357831DC081E0818333822282882768
:100BA0009927DC01821B930BA40BB50B84839583DF
:100BB000A683B7830DC0220F331F441F551F248304
:100BC0003583468357838281938101979383828300
:100BD0002481358146815781DA01C9010197A10934
:100BE000B1098F5F9F4FAF4FBF4328F30BC0918375
:100BF00033822282EA0CFB1C0C1D1D1DE482F5824F
:100C00000683178383E08083248135814681578161
:100C100057FF1AC0C901AA2797FDA095BA2F817066
:100C20009070A070B0705695479537952795822B98
:100C3000932BA42BB52B84839583A683B7838281C2
:100C40009381019693838283DF0101C0D201CD019C
:100C5000CDB7DEB7E2E10C94840BA0E2B0E0E3E3B1
:100C6000F6E00C94740B69837A838B839C832D83C9
:100C70003E834F835887E9E0EE2EF12CEC0EFD1EEB
:100C8000CE010196B7010E94970A8E010F5E1F4F99
:100C9000CE010596B8010E94970A8A8991E08927BA
:100CA0008A8BC701B801AE01475E5F4F0E94E10425
:100CB0000E94C209A096E6E00C94900BA0E2B0E07E
:100CC000E4E6F6E00C94740B69837A838B839C834F
:100CD0002D833E834F835887F9E0EF2EF12CEC0EE5
:100CE000FD1ECE010196B7010E94970A8E010F5E8C
:100CF0001F4FCE010596B8010E94970AC701B8019F
:100D0000AE01475E5F4F0E94E1040E94C209A096B7
:100D1000E6E00C94900BA0E2B0E0E1E9F6E00C9480
:100D2000680B69837A838B839C832D833E834F83F7
:100D30005887CE010196BE01675F7F4F0E94970AD8
:100D4000CE010596BE016F5E7F4F0E94970A99857E
:100D5000923088F089898230C8F0943019F482305A
:100D600051F404C0843029F4923081F487E392E096
:100D7000C6C0923049F420E09A858A89981321E010
:100D80002A87CE010996BBC0823049F420E09A85BB
:100D90008A89981321E02A8BCE014196B0C02D8418
:100DA0003E844F8458886D887E888F88988CEE2486
:100DB000FF248701AA24BB24650140E050E060E0E5
:100DC00070E0E0E0F0E0C10181709070892BE9F003
:100DD000E60CF71C081D191D9A01AB012A0D3B1DDD
:100DE0004C1D5D1D80E090E0A0E0B0E0E614F7044B
:100DF0000805190520F481E090E0A0E0B0E0BA0118
:100E0000A901480F591F6A1F7B1FAA0CBB1CCC1CD1
:100E1000DD1C97FE08C081E090E0A0E0B0E0A82AC9
:100E2000B92ACA2ADB2A3196E032F10549F0660C6C
:100E3000771C881C991C5694479437942794C3CFE9
:100E4000FA85EA892B893C898B859C85280F391F77
:100E50002E5F3F4F17C0CA0181709070892B61F0DF
:100E600016950795F794E79480E090E0A0E0B0E84D
:100E7000E82AF92A0A2B1B2B7695679557954795F3
:100E80002F5F3F4F77FDE7CF0CC0440F551F661F04
:100E9000771F17FD4160EE0CFF1C001F111F215032
:100EA0003040403090E0590790E0690790E47907BE
:100EB00060F32B8F3C8FDB01CA018F779070A0709D
:100EC000B07080349105A105B10561F447FD0AC0F9
:100ED000E114F1040105110529F0405C5F4F6F4FEB
:100EE0007F4F40781A8EFE1711F081E08A8F4D8F68
:100EF0005E8F6F8F78A383E0898FCE0149960E9421
:100F0000C209A096E2E10C94840BA8E1B0E0EBE802
:100F1000F7E00C94700B69837A838B839C832D8319
:100F20003E834F835887B9E0EB2EF12CEC0EFD1E6B
:100F3000CE010196B7010E94970A8E010F5E1F4FE6
:100F4000CE010596B8010E94970A2985223008F43F
:100F50007EC03989323010F4B8017CC08A859A8904
:100F600089278A87243011F0223031F4231709F0C1
:100F70006EC067E372E06EC0343039F41D861E86A1
:100F80001F86188A1C861B8604C0323021F484E038
:100F90008987B7015FC02B853C858B899C89281B7D
:100FA000390B3C872B87ED84FE840F851889AD882B
:100FB000BE88CF88D88CEA14FB040C051D0540F4CC
:100FC000EE0CFF1C001F111F215030403C872B8767
:100FD00020E030E040E050E080E090E0A0E0B0E4CD
:100FE00060E070E0EA14FB040C051D0540F0282BBE
:100FF000392B4A2B5B2BEA18FB080C091D09B69507
:10100000A79597958795EE0CFF1C001F111F6F5F2A
:101010007F4F6F31710531F7DA01C9018F77907019
:10102000A070B07080349105A105B10561F427FD71
:101030000AC0E114F1040105110529F0205C3F4FBD
:101040004F4F5F4F20782D873E874F87588BBE01CB
:10105000675F7F4FCB010E94C2096896EAE00C945B
:101060008C0BA8E1B0E0E7E3F8E00C94740B698323
:101070007A838B839C832D833E834F83588789E0BB
:10108000E82EF12CEC0EFD1ECE010196B7010E9458
:10109000970A8E010F5E1F4FCE010596B8010E9480
:1010A000970A8985823040F08989823028F0C7010B
:1010B000B8010E940F0B01C08FEF6896E6E00C9418
:1010C000900BA8E1B0E0E7E6F8E00C94740B6983BC
:1010D0007A838B839C832D833E834F83588789E05B
:1010E000E82EF12CEC0EFD1ECE010196B7010E94F8
:1010F000970A8E010F5E1F4FCE010596B8010E9420
:10110000970A8985823040F08989823028F0C701AA
:10111000B8010E940F0B01C08FEF6896E6E00C94B7
:10112000900BA8E1B0E0E7E9F8E00C94740B698358
:101130007A838B839C832D833E834F83588789E0FA
:10114000E82EF12CEC0EFD1ECE010196B7010E9497
:10115000970A8E010F5E1F4FCE010596B8010E94BF
:10116000970A8985823040F08989823028F0C7014A
:10117000B8010E940F0B01C081E06896E6E00C9474
:10118000900BA8E0B0E0E7ECF8E00C94710B9B0149
:10119000AC0183E08983DA01C9018827B7FD839513
:1011A0009927AA27BB27B82E2115310541055105DE
:1011B00019F482E089833AC08823A9F0203080E0C6
:1011C000380780E0480780E8580729F460E070E0BD
:1011D00080E09FEC30C0EE24FF248701E21AF30A7E
:1011E000040B150B02C079018A018EE1C82ED12CA7
:1011F000DC82CB82ED82FE820F831887C801B701A3
:101200000E94730901971816190684F4082E04C069
:10121000EE0CFF1C001F111F0A94D2F7ED82FE8214
:101220000F831887C81AD90ADC82CB82BA82CE0112
:1012300001960E94C2092896E9E00C948D0BACE05F
:10124000B0E0E5E2F9E00C94780B69837A838B8354
:101250009C83CE010196BE016B5F7F4F0E94970A6F
:101260008D81823061F1823050F1843021F48E81A1
:10127000882351F12EC02F81388537FD20C06E8123
:101280002F3131051CF06623F9F023C08EE190E088
:10129000821B930B29853A854B855C8504C0569546
:1012A0004795379527958A95D2F76623B1F05095E3
:1012B0004095309521953F4F4F4F5F4F0EC020E036
:1012C00030E040E050E009C02FEF3FEF4FEF5FE725
:1012D00004C020E030E040E050E8B901CA012C969B
:1012E000E2E00C94940BEF92FF920F931F937B011B
:1012F0008C0180E0E81680E0F80681E0080780E0D5
:10130000180788F48FEFE816F1040105110531F094
:1013100028F088E090E0A0E0B0E017C080E090E026
:10132000A0E0B0E012C080E0E81680E0F80680E0BF
:10133000080781E0180728F088E190E0A0E0B0E01D
:1013400004C080E190E0A0E0B0E020E230E040E0C6
:1013500050E0281B390B4A0B5B0B04C01695079510
:10136000F794E7948A95D2F7F701E15CFD4F80810D
:10137000281B310941095109C9011F910F91FF90A3
:10138000EF900895DF92EF92FF920F931F93FC016D
:10139000E480F58006811781D1808081823048F415
:1013A00080E090E0A0E1B0E0E82AF92A0A2B1B2BAC
:1013B000A5C0843009F49FC0823021F4EE24FF24BC
:1013C000870105C0E114F1040105110519F4E0E0FD
:1013D000F0E096C0628173819FEF623879070CF06C
:1013E0005BC022E83FEF261B370B2A3131052CF07A
:1013F00020E030E040E050E02AC0B801A701022E12
:1014000004C076956795579547950A94D2F781E081
:1014100090E0A0E0B0E004C0880F991FAA1FBB1F96
:101420002A95D2F70197A109B1098E219F21A02306
:10143000B1230097A105B10521F081E090E0A0E083
:10144000B0E09A01AB01282B392B4A2B5B2BDA0138
:10145000C9018F779070A070B07080349105A1059C
:10146000B10539F427FF09C0205C3F4F4F4F5F4F54
:1014700004C0215C3F4F4F4F5F4FE0E0F0E0203071
:10148000A0E03A07A0E04A07A0E45A0710F0E1E024
:10149000F0E079018A0127C06038710564F5FB012D
:1014A000E158FF4FD801C7018F779070A070B070DE
:1014B00080349105A105B10539F4E7FE0DC080E443
:1014C00090E0A0E0B0E004C08FE390E0A0E0B0E0E6
:1014D000E80EF91E0A1F1B1F17FF05C0169507957A
:1014E000F794E794319687E016950795F794E7947B
:1014F0008A95D1F705C0EE24FF248701EFEFF0E0D5
:101500006E2F679566276795902F9F77D794DD2478
:10151000D7948E2F8695492F462B582F5D29B701DA
:10152000CA011F910F91FF90EF90DF900895FC0189
:10153000DB01408151812281622F6F7770E0221F91
:101540002227221F9381892F880F822B282F30E09A
:10155000991F9927991F11969C9311972115310571
:10156000A9F5411551056105710511F482E037C0F7
:1015700082E89FEF13969C938E9312979A01AB018A
:1015800067E0220F331F441F551F6A95D1F783E090
:101590008C930DC0220F331F441F551F12968D913F
:1015A0009C911397019713969C938E9312972030DA
:1015B00080E0380780E0480780E4580758F3149625
:1015C0002D933D934D935C93179708952F3F3105CD
:1015D00079F4411551056105710519F484E08C9386
:1015E000089564FF03C081E08C9312C01C9210C068
:1015F0002F57304013963C932E93129783E08C9391
:1016000087E0440F551F661F771F8A95D1F77064D6
:1016100014964D935D936D937C93179708951F9344
:10162000DC01FB019C91923008F447C0808182303C
:1016300008F443C0943051F411961C91843099F50C
:101640008181682F70E0611B71093FC0843021F0F7
:10165000923031F48230B9F18181882389F12DC033
:1016600011961C9111978230F1F081811817D9F4ED
:1016700012962D913C911397828193818217930743
:1016800094F028173907BCF014968D919D910D9018
:10169000BC91A02D248135814681578128173907B7
:1016A0004A075B0718F4112341F00AC08217930719
:1016B000A407B50740F4112319F061E070E005C0FC
:1016C0006FEF7FEF02C060E070E0CB011F910895E3
:1016D0002F923F924F925F926F927F928F929F9242
:1016E000AF92BF92CF92DF92EF92FF920F931F9330
:1016F000CF93DF93CDB7DEB7CA1BDB0B0FB6F894E1
:10170000DEBF0FBECDBF19942A88398848885F8410
:101710006E847D848C849B84AA84B984C884DF8091
:10172000EE80FD800C811B81AA81B981CE0FD11D75
:101730000FB6F894DEBF0FBECDBFED0108950F9335
:101740001F93CF93DF938C01EB01009731F4611568
:10175000710519F420E030E038C081E090E06EE0DF
:1017600070E00E94450EFC019C01009771F180E839
:101770008383209771F0D387C28781E88383809128
:10178000CA039091CB03892B21F4F093CB03E09310
:10179000CA0301151105C9F0118700878381826092
:1017A00083838091CC039091CD03892B71F4F093C6
:1017B000CD03E093CC038091CE039091CF03892B8E
:1017C00021F4F093CF03E093CE03C901DF91CF91D1
:1017D0001F910F910895CF93DF93EC014B8140FF50
:1017E0001AC046FF0AC04F7B4B838E819F810196B2
:1017F0009F838E838A81282F2BC042FF13C0E881EC
:10180000F9818081282F332727FD30952115310557
:1018100029F440624B832FEF3FEF1BC03196F983D1
:10182000E88311C0EA85FB85CE0119959C0197FFDD
:101830000AC09B812F5F3F4F11F080E201C080E121
:10184000892B8B83E8CF8E819F8101969F838E8326
:1018500030E0C901DF91CF910895DF93CF93CDB7E9
:10186000DEB7FE013696619171918091CC03909123
:10187000CD03AF010E943F0CCF91DF9108952F92CD
:101880003F924F925F926F927F928F929F92AF9210
:10189000BF92CF92DF92EF92FF920F931F93DF934D
:1018A000CF93CDB7DEB72B970FB6F894DEBF0FBE40
:1018B000CDBF3C012B015A01FC01178216828381A6
:1018C00081FD03C06FEF7FEFC6C19AE0892E1E0134
:1018D0000894211C311CF3012381F20123FD859121
:1018E00023FF81912F01882309F4B2C1853239F495
:1018F00023FD859123FF81912F01853229F490E00A
:10190000B3010E94830FE7CF982FFF24EE24992480
:10191000FFE1FF15D0F09B3269F09C3228F4903241
:1019200059F0933291F40EC09D3249F0903369F42E
:1019300041E024C052E0F52A84E0F82A28C098E06B
:10194000F92A25C0E0E1FE2A22C0F7FC29C0892F30
:1019500080538A3070F4F6FE05C0989C902C1124B8
:10196000980E15C0E89CE02C1124E80EF0E2FF2A46
:101970000EC09E3229F4F6FC6BC140E4F42A07C085
:101980009C3619F450E8F52A02C0983649F4F20161
:1019900023FD959123FF91912F01992309F0B8CF51
:1019A000892F8554833018F08052833038F444E016
:1019B00050E0A40EB51E5FE359830FC0933631F09B
:1019C000933779F0933509F056C020C0F501808136
:1019D000898342E050E0A40EB51E610101E010E0F1
:1019E00012C0F501C080D180F6FC03C06FEF7FEF1D
:1019F00002C0692D70E042E050E0A40EB51EC601A1
:101A00000E94780F8C015FE7F52214C0F501C080B9
:101A1000D180F6FC03C06FEF7FEF02C0692D70E04C
:101A200042E050E0A40EB51EC6010E94660F8C0174
:101A300050E8F52AF3FE07C01AC080E290E0B30137
:101A40000E94830FEA948E2D90E008171907A8F3DF
:101A50000EC0F601F7FC8591F7FE81916F0190E0D1
:101A6000B3010E94830FE110EA9401501040011568
:101A7000110579F7EAC0943611F0993669F5F7FE49
:101A800008C0F501208131814281538184E090E0DA
:101A90000AC0F501808191819C01442737FD409562
:101AA000542F82E090E0A80EB91E9FE6F92257FF5E
:101AB00009C050954095309521953F4F4F4F5F4F4E
:101AC000E0E8FE2ACA01B901A1012AE030E00E9443
:101AD000AF0FD82ED21840C0953729F41F2D1F7E86
:101AE0002AE030E01DC01F2D197F9F3661F090372E
:101AF00020F4983509F0ACC00FC0903739F0983712
:101B000009F0A6C004C028E030E00AC0106114FD4E
:101B1000146020E130E004C014FD166020E132E0E2
:101B200017FF08C0F501608171818281938144E0D3
:101B300050E008C0F50180819181BC0180E090E017
:101B400042E050E0A40EB51EA1010E94AF0FD82EB6
:101B5000D2188FE7F82EF122F6FE0BC05EEFF522C9
:101B6000D91438F4F4FE07C0F2FC05C08FEEF82259
:101B700002C01D2D01C0192DF4FE0DC0FE01ED0D9A
:101B8000F11D8081803319F499EEF92208C01F5F9E
:101B9000F2FE05C003C08F2D867809F01F5F0F2D60
:101BA000F3FC14C0F0FE0FC01E1510F09D2C0BC0EE
:101BB0009D2C9E0C911A1E2D06C080E290E0B30170
:101BC0000E94830F1F5F1E15C0F304C01E1510F482
:101BD000E11A01C0EE2404FF0FC080E390E0B301DE
:101BE0000E94830F02FF1DC001FD03C088E790E043
:101BF0000EC088E590E00BC0802F867891F001FF41
:101C000002C08BE201C080E2F7FC8DE290E0B301FC
:101C10000E94830F06C080E390E0B3010E94830F0F
:101C20009A94D914C0F3DA94F101ED0DF11D80817D
:101C300090E0B3010E94830FDD20A9F706C080E287
:101C400090E0B3010E94830FEA94EE20C1F743CEE7
:101C5000F30166817781CB012B960FB6F894DEBF36
:101C60000FBECDBFCF91DF911F910F91FF90EF90ED
:101C7000DF90CF90BF90AF909F908F907F906F90AC
:101C80005F904F903F902F9008950F931F93CF93A5
:101C9000DF93689F8001699F100D789F100D1124BC
:101CA000C8010E94610EEC01009729F060E070E02D
:101CB000A8010E94710FCE01DF91CF911F910F916A
:101CC0000895CF93DF93BC018230910510F462E058
:101CD00070E0A091D203B091D303ED01E0E0F0E019
:101CE00040E050E021C0888199818617970769F408
:101CF0008A819B81309719F09383828304C09093EB
:101D0000D3038093D203FE0134C06817790738F4F7
:101D10004115510519F08417950708F4AC01FE012F
:101D20008A819B819C01E9012097E9F641155105C3
:101D3000A9F1CA01861B970B049708F4BA01E0E0E9
:101D4000F0E02AC08D919C91119784179507F9F4C2
:101D50006417750781F412968D919C9113973097B3
:101D600019F09383828304C09093D3038093D203AA
:101D7000FD0132964FC0CA01861B970BFD01E80F8B
:101D8000F91F6193719302978D939C9343C0FD015A
:101D9000828193819C01D9011097A1F68091D00393
:101DA0009091D103892B41F480914103909142039A
:101DB0009093D1038093D003409143035091440307
:101DC0004115510541F44DB75EB780913F039091A5
:101DD0004003481B590B2091D0033091D1032417A5
:101DE0003507B0F4CA01821B930B8617970780F062
:101DF000AB014E5F5F4F8417950750F0420F531FA2
:101E00005093D1034093D003F9016193719302C0C1
:101E1000E0E0F0E0CF01DF91CF910895CF93DF9321
:101E2000009709F450C0EC0122971B821A82A091FE
:101E3000D203B091D303109709F140E050E0AC1702
:101E4000BD0708F1BB83AA83FE0121913191E20F06
:101E5000F31FAE17BF0779F48D919C911197280F4E
:101E6000391F2E5F3F4F3983288312968D919C91A5
:101E700013979B838A834115510571F4D093D30343
:101E8000C093D20320C012968D919C911397AD01FF
:101E9000009711F0DC01D3CFFA01D383C2832191E3
:101EA0003191E20FF31FCE17DF0769F48881998122
:101EB000280F391F2E5F3F4FFA01318320838A811B
:101EC0009B8193838283DF91CF910895FC010590DC
:101ED000615070400110D8F7809590958E0F9F1F2C
:101EE0000895DC0101C06D9341505040E0F7089522
:101EF000FC016150704001900110D8F780959095D9
:101F00008E0F9F1F08950F931F93CF93DF938C0124
:101F1000EB018B8181FF1BC082FF0DC02E813F81B1
:101F20008C819D812817390764F4E881F981019338
:101F3000F983E88306C0E885F985802F1995892BF8
:101F400031F48E819F8101969F838E8302C00FEFB3
:101F50001FEFC801DF91CF911F910F910895FA01F2
:101F6000AA27283051F1203181F1E8946F936E7FD8
:101F70006E5F7F4F8F4F9F4FAF4FB1E03ED0B4E0C9
:101F80003CD0670F781F891F9A1FA11D680F791F0A
:101F90008A1F911DA11D6A0F711D811D911DA11D1B
:101FA00020D009F468943F912AE0269F112430192B
:101FB000305D3193DEF6CF010895462F4770405DC6
:101FC0004193B3E00FD0C9F7F6CF462F4F70405D75
:101FD0004A3318F0495D31FD4052419302D0A9F7D0
:101FE000EACFB4E0A6959795879577956795BA95CA
:101FF000C9F700976105710508959B01AC010A2E90
:1020000006945795479537952795BA95C9F7620F66
:0E201000731F841F951FA01D0895F894FFCF25
:10201E0021212148656C6C6F20576F726C642121F1
:10202E0021000A0A2053657269616C20436F6D6D41
:10203E002E2048656C6C6F20576F726C64203233A3
:10204E00310025640D0A00000000000000000000B1
:10205E00010202030303030404040404040404053C
:10206E000505050505050505050505050505050611
:10207E0006060606060606060606060606060606F2
:10208E0006060606060606060606060606060607E1
:10209E0007070707070707070707070707070707C2
:1020AE0007070707070707070707070707070707B2
:1020BE0007070707070707070707070707070707A2
:1020CE000707070707070707070707070707070891
:1020DE000808080808080808080808080808080872
:1020EE000808080808080808080808080808080862
:1020FE000808080808080808080808080808080852
:10210E000808080808080808080808080808080841
:10211E000808080808080808080808080808080831
:10212E000808080808080808080808080808080821
:10213E000808080808080808080808080808080811
:10214E0008080808080808080808080808080820E9
:06215E0000D403000000A4
:00000001FF
