:100000000C9466000C9487000C9487000C94870075
:100010000C9487000C9487000C9487000C94870044
:100020000C9487000C9487000C9487000C94870034
:100030000C9487000C9487000C9487000C94870024
:100040000C9487000C94CF0D0C9487000C948700BF
:100050000C9487000C9487000C9487000C94870004
:100060000C9487000C9423070C9487000C94870051
:100070000C9487000C9487000C9487000C948700E4
:100080000C9487000C9487000C9487000C948700D4
:100090000C94D40F0C9487000C9487000C94870068
:1000A0000C9487000C9487000C9487000C948700B4
:1000B0000C9487000C9487000C9487000C948700A4
:1000C0000C9487000C9487000C94870011241FBEA9
:1000D000CFEFD1E2DEBFCDBF00E00CBF13E0A0E068
:1000E000B2E0E6EAF7E300E00BBF02C007900D9232
:1000F000A436B107D9F715E0A4E6B3E001C01D921C
:10010000A83FB107E1F70E9489000C94D11B0C9421
:100110000000DF93CF93CDB7DEB70E94640C0E943E
:10012000940CFDCFDF93CF9300D00F92CDB7DEB705
:100130009A8389837C836B8389819A8168E070E0EC
:1001400040E050E00E94840B89819A8169E070E070
:1001500040E050E00E94840B89819A812B813C8190
:1001600060E270E0A9010E94840B0F900F900F9045
:100170000F90CF91DF910895DF93CF9300D000D0FF
:10018000CDB7DEB79A8389837C836B835E834D838F
:1001900089819A812B813C8168E070E0A9010E94ED
:1001A000840B2D813E8189819A816EE170E0A901E5
:1001B0000E94840B26960FB6F894DEBF0FBECDBF0B
:1001C000CF91DF910895DF93CF9300D00F92CDB7F9
:1001D000DEB79A8389837C836B8389819A812B81A3
:1001E0003C8160E270E0A9010E94840B0F900F90A7
:1001F0000F900F90CF91DF910895DF93CF9300D0B0
:100200000F92CDB7DEB79A8389837C836B832B8172
:100210003C8189819A816EE170E0A9010E94840B82
:100220000F900F900F900F90CF91DF910895DF9373
:10023000CF9300D000D0CDB7DEB79C838B838B816A
:100240009C816EE270E00E94F80A9A8389830E9482
:100250005E01009759F01E821D8289819A81009764
:1002600049F481E090E09E838D8304C08FEF9FEF7F
:100270009E838D838D819E8126960FB6F894DEBF76
:100280000FBECDBFCF91DF910895DF93CF9300D004
:100290000F92CDB7DEB79C838B838B819C8164E208
:1002A00070E00E94500B9A83898389819A810F9014
:1002B0000F900F900F90CF91DF910895DF93CF9320
:1002C00000D00F92CDB7DEB70E94EE099A838983E2
:1002D0001C821B8289819A818130910521F481E001
:1002E00090E09C838B838B819C810F900F900F906B
:1002F0000F90CF91DF910895DF93CF93CDB7DEB705
:1003000082E090E060E070E00E94E30081E090E035
:1003100060E070E00E94E300CF91DF910895DF93E9
:10032000CF93CDB7DEB782E090E068EC70E00E943A
:10033000E30081E090E068EC74E00E94E30084E078
:1003400090E00E94F20B85E090E00E940F0C86E0A6
:1003500090E00E94F20BCF91DF910895DF93CF934D
:10036000CDB7DEB782E090E068EC74E00E94E30075
:1003700081E090E068EC70E00E94E300CF91DF91B3
:100380000895DF93CF93CDB7DEB782E090E060E9C8
:1003900071E00E94E30081E090E060E975E00E9476
:1003A000E300CF91DF910895DF93CF93CDB7DEB710
:1003B00082E090E060E975E00E94E30081E090E077
:1003C00060E971E00E94E300CF91DF910895DF932F
:1003D000CF93CDB7DEB782E090E068EC70E00E948A
:1003E000E30081E090E068EC70E00E94E300CF91D0
:1003F000DF910895DF93CF93CDB7DEB782E090E031
:1004000068EC74E00E94E30081E090E068EC74E046
:100410000E94E300CF91DF910895DF93CF93CDB792
:10042000DEB782E090E060E971E00E94E30081E0E5
:1004300090E060E971E00E94E300CF91DF910895C0
:10044000DF93CF93CDB7DEB782E090E060E975E04F
:100450000E94E30081E090E060E975E00E94E30023
:10046000CF91DF910895DF93CF93CDB7DEB782E0D0
:1004700090E060E971E00E94E30081E090E068ECC8
:1004800074E00E94E30084E090E00E94F20B85E0BB
:1004900090E00E94F20B86E090E00E940F0CCF915A
:1004A000DF910895DF93CF93CDB7DEB782E090E080
:1004B00068EC70E00E94E30081E090E060E975E0A4
:1004C0000E94E30084E090E00E940F0C85E090E041
:1004D0000E94F20B86E090E00E94F20BCF91DF9138
:1004E0000895DF93CF93CDB7DEB7E1E2F0E08CEF74
:1004F0008083E2E2F0E08CEF8083EAE7F0E086E8D8
:10050000808381E090E0CF91DF910895DF93CF93D6
:10051000CDB7DEB76C970FB6F894DEBF0FBECDBF78
:100520009A8F898FECE7F0E0898D8083898D9A8D91
:100530009C8F8B8F8B8D9C8D8330910581F18B8D62
:100540009C8D843091055CF48B8D9C8D8130910560
:10055000B1F08B8D9C8D82309105C9F03FC08B8DA1
:100560009C8D8530910559F18B8D9C8D8530910541
:10057000F4F08B8D9C8D8630910549F12FC0A2E25D
:10058000B0E0E2E2F0E080818F778C9327C0A2E2B6
:10059000B0E0E2E2F0E080818F7B8C931FC0A2E2AA
:1005A000B0E0E2E2F0E080818F7D8C9317C0A2E2A0
:1005B000B0E0E2E2F0E080818F7E8C930FC0A2E297
:1005C000B0E0E2E2F0E08081877F8C9307C0A2E296
:1005D000B0E0E2E2F0E080818B7F8C9380E090E0FD
:1005E000A0E4B1E48D8B9E8BAF8BB88F6D897E8933
:1005F0008F89988D2BEA3AEA4AEA50E40E941A124F
:10060000DC01CB01898B9A8BAB8BBC8B69897A8996
:100610008B899C8920E030E040E85FE30E94201451
:1006200088231CF481E0888B91C069897A898B8941
:100630009C8920E030E04FE753E40E94C013181675
:100640000CF07BC06D897E898F89988D20E030E029
:100650004AE754E40E941413DC01CB018C879D8788
:10066000AE87BF876C857D858E859F8520E030E0D5
:100670004AE755E40E941A12DC01CB01888799876A
:10068000AA87BB87688579858A859B8520E030E0CD
:1006900040E85FE30E94201488232CF481E090E07E
:1006A0009F838E833FC0688579858A859B8520E0FE
:1006B0003FEF4FE757E40E94C01318164CF56C85C6
:1006C0007D858E859F8520E030E040E251E40E94E8
:1006D0001A12DC01CB01BC01CD010E944410DC01E7
:1006E000CB019F838E830FC080E991E09D838C8333
:1006F0008C819D810197F1F79D838C838E819F81F1
:1007000001979F838E838E819F81009769F724C014
:10071000688579858A859B850E944410DC01CB0120
:100720009F838E838E819F819B838A838A819B8115
:100730000197F1F79B838A830FC069897A898B8936
:100740009C890E944410DC01CB01888B88898983B5
:1007500089818A95F1F78983AAE7B0E0EAE7F0E0BA
:10076000808180618C93AAE7B0E0EAE7F0E08081C5
:1007700080648C93EAE7F0E08081882F90E08071BC
:1007800090700097B9F3E2E2F0E08CEF8083E8E745
:10079000F0E0808191816C960FB6F894DEBF0FBEB9
:1007A000CDBFCF91DF910895DF93CF9300D00F920B
:1007B000CDB7DEB79C838B83ADE2B0E0EDE2F0E035
:1007C0008081282F81E090E00B8002C0880F991F64
:1007D0000A94E2F7809582238C93AEE2B0E0EEE2D9
:1007E000F0E08081282F81E090E00B8002C0880F2C
:1007F000991F0A94E2F7822B8C93ECE2F0E080815F
:10080000282F30E081E090E00B8002C0880F991F14
:100810000A94E2F7822393239A83898389819A81B8
:100820000F900F900F900F90CF91DF910895DF936D
:10083000CF930F92CDB7DEB78091EE059091EF0583
:100840000E947A17898389810F90CF91DF91089553
:10085000DF93CF93CDB7DEB728970FB6F894DEBFFE
:100860000FBECDBF9C838B834D835E836F83788760
:10087000E0ECF0E082E48083E1ECF0E088E9808362
:10088000E2ECF0E086E0808360E074E284EF99E4DB
:100890002D813E814F8158850E941413DC01CB01CC
:1008A000BC01CD010E944410DC01CB0101979A8369
:1008B0008983E5ECF0E089819A81892F99278083EB
:1008C000E4ECF0E08981808360E074E284E799E4FD
:1008D0002D813E814F8158850E941413DC01CB018C
:1008E000BC01CD0120E030E040E451E40E941A1246
:1008F000DC01CB018093E6059093E705A093E80522
:10090000B093E9052091E6053091E7054091E805AF
:100910005091E90560E070E08AE793E40E941413C7
:10092000DC01CB01BC01CD010E944410DC01CB01F4
:100930009093E5058093E405AEE2B0E0EEE2F0E0EE
:1009400080818B7F8C93AEE2B0E0EEE2F0E08081BC
:1009500088608C93E6ECF0E08FEF80831092640463
:100960001092650481E090E028960FB6F894DEBFFF
:100970000FBECDBFCF91DF910895DF93CF93CDB759
:10098000DEB7CF91DF910895DF93CF93CDB7DEB778
:100990008091650480936404CF91DF910895DF9383
:1009A000CF9300D000D0CDB7DEB79C838B837E83FE
:1009B0006D83F894AEE2B0E0EEE2F0E08081877FF4
:1009C0008C93AEE2B0E0EEE2F0E0808184608C9344
:1009D0001A82198220C0E0ECF0E08081882F90E03C
:1009E000807290700097B9F3A0ECB0E0E0ECF0E01A
:1009F000808180648C93A6ECB0E029813A818B8160
:100A00009C81FC01E20FF31F80818C9389819A8184
:100A100001969A83898329813A818D819E81281745
:100A20003907CCF2E0ECF0E08081882F90E0807410
:100A300090700097B9F3AEE2B0E0EEE2F0E08081B2
:100A40008B7F8C93AEE2B0E0EEE2F0E080818860D4
:100A50008C93789489819A8126960FB6F894DEBF9C
:100A60000FBECDBFCF91DF9108950F931F93DF93FA
:100A7000CF93CDB7DEB72A970FB6F894DEBF0FBE7F
:100A8000CDBF9E838D8378876F839091640480911E
:100A90006504981719F41A8619862DC00E949806C5
:100AA0009A83898329813A818F8198858217930758
:100AB00024F48F8198859A8389831C821B8210C0BD
:100AC0002B813C818D819E818C01020F131F0E941E
:100AD000F706F80180838B819C8101969C838B8330
:100AE0002B813C8189819A81281739074CF38981B0
:100AF0009A819A87898789859A852A960FB6F8946C
:100B0000DEBF0FBECDBFCF91DF911F910F91089532
:100B1000DF93CF930F920F92CDB7DEB79A8389837D
:100B20001092ED051092EC0529813A818091E4053F
:100B30009091E505820F931F0A969093EB058093A1
:100B4000EA050F900F90CF91DF910895DF93CF9337
:100B5000CDB7DEB76A970FB6F894DEBF0FBECDBF34
:100B60008091EC059091ED0501969093ED058093B1
:100B7000EC052091EC053091ED058091EA0590910E
:100B8000EB058217930728F481E090E09A8F898F14
:100B9000C4C08091E6059091E705A091E805B09169
:100BA000E9058D8B9E8BAF8BB88F6D897E898F8980
:100BB000988D2BEA3AEA4AEA5EE30E941A12DC01B7
:100BC000CB01898B9A8BAB8BBC8B69897A898B899A
:100BD0009C8920E030E040E85FE30E9420148823F5
:100BE0001CF481E0888B91C069897A898B899C8902
:100BF00020E030E04FE753E40E94C01318160CF0D9
:100C00007BC06D897E898F89988D20E030E04AE72E
:100C100054E40E941413DC01CB018C879D87AE87BE
:100C2000BF876C857D858E859F8520E030E04AE713
:100C300053E40E941A12DC01CB0188879987AA87A6
:100C4000BB87688579858A859B8520E030E040E810
:100C50005FE30E94201488232CF481E090E09F83BE
:100C60008E833FC0688579858A859B8520E03FEF2C
:100C70004FE757E40E94C01318164CF56C857D852C
:100C80008E859F8520E030E040E251E40E941A12F8
:100C9000DC01CB01BC01CD010E944410DC01CB0181
:100CA0009F838E830FC089E190E09D838C838C812C
:100CB0009D810197F1F79D838C838E819F810197A0
:100CC0009F838E838E819F81009769F724C06885FA
:100CD00079858A859B850E944410DC01CB019F8326
:100CE0008E838E819F819B838A838A819B810197DA
:100CF000F1F79B838A830FC069897A898B899C89E4
:100D00000E944410DC01CB01888B8889898389810A
:100D10008A95F1F789831A8E198E898D9A8D6A9634
:100D20000FB6F894DEBF0FBECDBFCF91DF9108950F
:100D3000DF93CF930F920F92CDB7DEB790916404FB
:100D400080916504981719F41A82198225C0909130
:100D5000640480916504981778F480916504282FC5
:100D600030E080916404882F90E0A901481B590B62
:100D7000CA019A83898310C080916504282F30E0CE
:100D800080916404882F90E0A901481B590BCA0187
:100D900080509F4F9A83898389819A810F900F9009
:100DA000CF91DF910895DF93CF930F92CDB7DEB748
:100DB00089830E9498068F3F9105A9F08091650470
:100DC000882F90E0FC01EC59FC4F89818083809151
:100DD00065048F3F19F41092650405C08091650485
:100DE0008F5F809365040F90CF91DF910895DF931B
:100DF000CF930F920F92CDB7DEB79091640480919C
:100E00006504981719F48FEF8A8317C080916404E2
:100E1000882F90E0FC01EC59FC4F80818983809100
:100E200064048F3F19F41092640405C08091640437
:100E30008F5F8093640489818A838A810F900F90E9
:100E4000CF91DF9108951F920F920FB60F920090ED
:100E50005B000F9211242F933F934F935F936F93F7
:100E60007F938F939F93AF93BF93EF93FF93DF9302
:100E7000CF93CDB7DEB7E6ECF0E080810E94D306D9
:100E8000CF91DF91FF91EF91BF91AF919F918F91A2
:100E90007F916F915F914F913F912F910F900092B1
:100EA0005B000F900FBE0F901F901895DF93CF93AC
:100EB000CDB7DEB72A970FB6F894DEBF0FBECDBF11
:100EC0009E838D8378876F838F8198850196AA276B
:100ED00097FDA095BA2FBC01CD010E9450149B0133
:100EE000AC0160E074E284EF99E40E941413DC0129
:100EF000CB0189839A83AB83BC838D819E812981B9
:100F00003A814B815C81BA01A9010E9428040097B3
:100F100019F41A8619860EC081E090E090930102C0
:100F20008093000210924F0510924E0581E090E0F0
:100F30009A87898789859A852A960FB6F894DEBFA5
:100F40000FBECDBFCF91DF910895DF93CF93CDB783
:100F5000DEB70E94BD04CF91DF910895DF93CF9358
:100F600000D00F92CDB7DEB7198280914E059091D7
:100F70004F058130910509F4AAC081E090E090937B
:100F80004F0580934E0580916904893958F084E0BB
:100F900090E0909301028093000210924F0510920E
:100FA0004E0595C080916A04813019F180916A04E0
:100FB0008230F9F080916A048330D9F080916A041C
:100FC0008430B9F080916A04853099F080916A0488
:100FD000863079F080916A04833859F084E090E09B
:100FE000909301028093000210924F0510924E05DB
:100FF0006EC08FEF809366048FEF809367041C822E
:101000000EC08C81882F90E00296FC01EA59FB4FBC
:1010100090818981890F89838C818F5F8C838C81FA
:10102000282F30E080916904882F90E001962817DE
:1010300039073CF380916904882F90E09C012D5F73
:101040003F4F89818095F901EA59FB4F8083809158
:101050000002909101028630910539F080910002E2
:10106000909101028730910511F40E94C40480918F
:1010700069048C5F8B838B81282F30E086E694E0B7
:10108000B9010E94CF048A839B818A81981759F005
:1010900082E090E0909301028093000210924F054D
:1010A00010924E0514C080916A04823041F4809100
:1010B0006C04882F90E006960E94880504C086E0A4
:1010C00090E00E94880510920102109200020F9099
:1010D0000F900F900F90CF91DF910895DF93CF93F2
:1010E00000D00F92CDB7DEB7198280914E05909156
:1010F0004F05009709F453C1809168048E3F59F45D
:1011000081E090E0909301028093000210924F05DD
:1011100010924E0544C18091000290910102009707
:1011200029F410924D0586E080934C0580914D0581
:10113000882F90E0AC014A5F5A4F80914C05282FD0
:1011400030E080914D05882F90E0281B390BCA01B3
:10115000B9010E9435058A8390914D058A81890FD6
:1011600080934D0590914D0580914C059817D8F4CA
:101170000E94A60581309105B1F480914D05882328
:1011800039F486E090E0909301028093000206C05B
:1011900087E090E0909301028093000210924F0547
:1011A00010924E05FCC01C822CC08C81882F90E0D0
:1011B000FC01EA5FFA4F80818F3F51F48C81882FC8
:1011C00090E00196FC01EA5FFA4F80818F3F21F1A8
:1011D0008C81282F30E080914D05882F90E0029778
:1011E0002817390759F480914D05882F90E0019711
:1011F000FC01EA5FFA4F80818F3F71F08C818F5F35
:101200008C838C81282F30E080914D05882F90E0D1
:101210000197281739074CF28C81882379F11B82BA
:1012200016C08B81482F50E08B81282F30E08C81B5
:10123000882F90E0820F931FFC01EA5FFA4F8081B4
:10124000FA01EA5FFA4F80838B818F5F8B838B81FA
:10125000482F50E080914D05282F30E08C81882F59
:1012600090E0B901681B790BCB0148175907CCF204
:1012700080914D059C81891B80934D0590914D0572
:1012800080914C05981738F485E090E09093010226
:101290008093000284C0909168048091080598179B
:1012A00059F087E090E09093010280930002109241
:1012B0004F0510924E0573C0809109058C5F809395
:1012C0004C0590914D0580914C05981748F58091FB
:1012D0004D05882F90E0AC014A5F5A4F80914C0534
:1012E000282F30E080914D05882F90E0281B390B86
:1012F000CA01B9010E9435058A8390914D058A8102
:10130000890F80934D0590914D0580914C0598175C
:1013100038F485E090E090930102809300023FC092
:101320001C820EC08C81882F90E00296FC01EA5F3F
:10133000FA4F90818981890F89838C818F5F8C839B
:101340008C81282F30E080910905882F90E001964C
:10135000281739073CF38981809589838091090595
:10136000882F90E00396FC01EA5FFA4F9081898113
:10137000981759F087E090E0909301028093000263
:1013800010924F0510924E050AC081E090E09093B4
:1013900001028093000210924F0510924E050F90AB
:1013A0000F900F900F90CF91DF910895DF93CF931F
:1013B000CDB7DEB70E94AE07809100029091010286
:1013C000009749F40E946E088091000290910102FA
:1013D00085309105B9F3CF91DF910895DF93CF93D5
:1013E000CDB7DEB78091000290910102CF91DF91DD
:1013F0000895DF93CF930F920F92CDB7DEB79A8304
:1014000089838981809368040F900F90CF91DF9139
:101410000895DF93CF930F920F92CDB7DEB79A83E3
:101420008983898180936A040F900F90CF91DF9117
:101430000895DF93CF9300D00F92CDB7DEB79A8394
:1014400089837C836B8389819A8105962B81FC013A
:10145000EA59FB4F20830F900F900F900F90CF9180
:10146000DF910895DF93CF930F920F92CDB7DEB740
:101470009A8389838981809369040F900F90CF911B
:10148000DF910895DF93CF9300D00F92CDB7DEB7F1
:101490009A83898380910A0599818923882329F079
:1014A00081E090E09C838B8302C01C821B828B8135
:1014B0009C810F900F900F900F90CF91DF91089526
:1014C000DF93CF93CDB7DEB780910905882F90E0E9
:1014D000CF91DF910895DF93CF930F920F92CDB705
:1014E000DEB79A83898389819A810596FC01EA5F38
:1014F000FA4F8081882F90E00F900F90CF91DF916D
:101500000895DF93CF9300D000D0CDB7DEB79C8392
:101510008B837E836D838D819E819A83898389816C
:101520009A81982F88279A8389832B813C8189818E
:101530009A81820F931F9A83898389819A81269643
:101540000FB6F894DEBF0FBECDBFCF91DF910895E7
:10155000DF93CF9300D00F92CDB7DEB79C838B8300
:101560008B819C8190709A83898389819A810F9065
:101570000F900F900F90CF91DF910895DF93CF934D
:1015800000D00F92CDB7DEB79C838B838B819C817B
:1015900080709A83898389819A81892F99279A8378
:1015A000898389819A810F900F900F900F90CF912E
:1015B000DF910895DF93CF930F920F92CDB7DEB7EF
:1015C0009A83898380914E0590914F050097D1F7BA
:1015D00089818093680481E080936A0482E080932B
:1015E00069040E94D6090F900F90CF91DF91089562
:1015F000DF93CF9300D00F92CDB7DEB79A83898364
:101600007C836B8380914E0590914F050097D1F7B5
:1016100089818093680482E080936A048B8180933F
:101620006B0481E080936C0484E0809369040E94E1
:10163000D60980910B05882F90E00F900F900F90A6
:101640000F90CF91DF910895DF93CF9300D000D01A
:10165000CDB7DEB79A8389837C836B835E834D83AA
:1016600080914E0590914F050097D1F78981809325
:10167000680483E080936A048B8180936B048D817E
:1016800080936C0484E0809369040E94D6092696B6
:101690000FB6F894DEBF0FBECDBFCF91DF91089596
:1016A000DF93CF9300D00F92CDB7DEB79A838983B3
:1016B0007C836B8380914E0590914F050097D1F705
:1016C00089818093680482E080936A048B8180938F
:1016D0006B0482E080936C0484E0809369040E9430
:1016E000D60980910B05482F50E080910C05282FDA
:1016F00030E0CA01B9010E94810A0F900F900F904B
:101700000F90CF91DF910895DF93CF9300D000D059
:10171000CDB7DEB79A8389837C836B835E834D83E9
:1017200080914E0590914F050097D1F78981809364
:10173000680483E080936A048B8180936B048D81BD
:101740009E810E94A80A80936C048D819E810E94D4
:10175000BE0A80936D0485E0809369040E94D609D7
:1017600026960FB6F894DEBF0FBECDBFCF91DF91A6
:101770000895DF93CF93CDB7DEB7A7E2B0E0E7E2FD
:10178000F0E0808180618C93A7E2B0E0E7E2F0E0D6
:10179000808180628C93A7E2B0E0E7E2F0E0808194
:1017A00080648C93CF91DF910895DF93CF930F9254
:1017B0000F92CDB7DEB79A838983A8E2B0E0E8E262
:1017C000F0E08081282F81E090E0098002C0880F3E
:1017D000991F0A94E2F782278C930F900F90CF9174
:1017E000DF910895DF93CF930F920F92CDB7DEB7BD
:1017F0009A838983A8E2B0E0E8E2F0E08081282FB4
:1018000081E090E0098002C0880F991F0A94E2F7F6
:10181000822B8C930F900F90CF91DF910895DF93DF
:10182000CF930F920F92CDB7DEB79A838983A8E248
:10183000B0E0E8E2F0E08081282F81E090E00980CC
:1018400002C0880F991F0A94E2F7809582238C9337
:101850000F900F90CF91DF910895DF93CF930F9268
:101860000F92CDB7DEB79A83898389819A81880FD9
:10187000991FFC01E05BFA4F808191810F900F90DE
:10188000CF91DF9108950F931F93DF93CF930F9222
:101890000F92CDB7DEB79A83898309811A81898136
:1018A0009A8101960E9486029C01C801880F991FA7
:1018B000FC01E05BFA4F318320830F900F90CF91B2
:1018C000DF911F910F910895DF93CF93CDB7DEB7CE
:1018D00060E071EE80E090E00E945F0E78940E94DC
:1018E000440E009769F40F920F92EDB7FEB7319650
:1018F0008EE092E0918380830E94BC170F900F903E
:101900000E947102009769F40F920F92EDB7FEB733
:10191000319680E392E0918380830E94BC170F9000
:101920000F90CF91DF910895DF93CF93CDB7DEB7BE
:1019300060970FB6F894DEBF0FBECDBF188A1F8622
:101940002AC08F859889AC014F5F5F4F8F8598893A
:10195000880F991FFC01E05BFA4F2081318100D094
:1019600000D0EDB7FEB7319687E492E09183808393
:1019700053834283358324830E94BC178DB79EB75F
:1019800006960FB6F8949EBF0FBE8DBF8F859889BF
:101990000196988B8F878F859889863091058CF278
:1019A00083E592E00E94CE1780E090E00E942D0C2B
:1019B000843091051CF00E947C0102C00E945B0DE6
:1019C00080E090E0AAE7B4E48B879C87AD87BE8770
:1019D0006B857C858D859E8520E030E04AE753E469
:1019E0000E941A12DC01CB018F839887A987BA87DE
:1019F0006F81788589859A8520E030E040E85FE353
:101A00000E94201488232CF481E090E09E838D8333
:101A10003FC06F81788589859A8520E03FEF4FE749
:101A200057E40E94C01318164CF56B857C858D8594
:101A30009E8520E030E040E251E40E941A12DC0171
:101A4000CB01BC01CD010E944410DC01CB019E837F
:101A50008D830FC089E190E09C838B838B819C8177
:101A60000197F1F79C838B838D819E8101979E83E3
:101A70008D838D819E81009769F714C06F81788571
:101A800089859A850E944410DC01CB019E838D8359
:101A90008D819E819A83898389819A810197F1F74B
:101AA0009A83898360960FB6F894DEBF0FBECDBFD0
:101AB000CF91DF910895DF93CF93CDB7DEB783E069
:101AC00090E00E942D0C8B3091051CF00E94330297
:101AD0000CC083E090E00E942D0C833091051CF433
:101AE0000E94520202C00E948F01CF91DF9108959F
:101AF000DF93CF93CDB7DEB782E090E00E942D0C4C
:101B00008B3091051CF00E9452020CC082E090E0E4
:101B10000E942D0C833091051CF40E94330202C0F8
:101B20000E948F01CF91DF9108950F931F93DF9350
:101B3000CF93CDB7DEB782E090E00E942D0C8C01F0
:101B400083E090E00E942D0C9801281B390BC901FD
:101B5000853191051CF00E94520215C082E090E090
:101B60000E942D0C8C0183E090E00E942D0C9801C6
:101B7000281B390BC901853191051CF00E943302E5
:101B800002C00E948F01CF91DF911F910F910895A4
:101B9000DF93CF93CDB7DEB7CF91DF9108951F923A
:101BA0000F920FB60F9200905B000F9211242F93AB
:101BB0003F934F935F936F937F938F939F93AF93D5
:101BC000BF93EF93FF93DF93CF9300D00F92CDB7E6
:101BD000DEB71A8219822EC089819A81880F991FD7
:101BE000FC01EE5FFD4F808191810097F1F08981CA
:101BF0009A8101960E9486029C838B8389819A81B7
:101C0000880F991FFC01EE5FFD4F8081918181302B
:101C1000910559F489819A81880F991FFC01E05B35
:101C2000FA4F8B819C819183808389819A8101966F
:101C30009A83898389819A81863091056CF2A8E81C
:101C4000B0E0E8E8F0E08081918188529B4F1196E6
:101C50009C938E930F900F900F900F90CF91DF91E8
:101C6000FF91EF91BF91AF919F918F917F916F9174
:101C70005F914F913F912F910F9000925B000F90D9
:101C80000FBE0F901F901895DF93CF93CDB7DEB79F
:101C9000E1E8F0E084E08083E8E8F0E088ED94E0BB
:101CA00091838083EFE6F0E082E08083E4E8F0E077
:101CB0001182108281E090E0CF91DF910895DF934F
:101CC000CF9300D000D0CDB7DEB76B837C838D83FC
:101CD0009E836B817C818D819E810E9450149B012B
:101CE000AC0160E074E284EF99E40E941413DC011B
:101CF000CB01BC01CD010E944410DC01CB01019756
:101D00009A838983E8ECF0E082E48083E9ECF0E0F8
:101D100088E98083EAECF0E086E08083EEECF0E096
:101D20008FEF80831092E0051092E105EDECF0E07A
:101D300089819A81892F990F990B8083ECECF0E0CF
:101D400089818083AEE2B0E0EEE2F0E080818B7FBB
:101D50008C93AEE2B0E0EEE2F0E0808188608C939C
:101D600087E090E12BE230E1B9010E942E179093B9
:101D7000E3058093E20526960FB6F894DEBF0FBE0A
:101D8000CDBFCF91DF910895DF93CF9300D000D0E6
:101D9000CDB7DEB79C838B837E836D831A821982D5
:101DA00019C0E8ECF0E08081882F90E0807290709C
:101DB0000097B9F3AEECB0E029813A818B819C8128
:101DC000FC01E20FF31F80818C9389819A81019637
:101DD0009A83898329813A818D819E8128173907C9
:101DE00004F326960FB6F894DEBF0FBECDBFCF9199
:101DF000DF9108950F931F93DF93CF93CDB7DEB795
:101E000029970FB6F894DEBF0FBECDBF9E838D839A
:101E100078876F839091E0058091E105981711F420
:101E200019862BC00E94490F9A83898329813A81A0
:101E30008F8198858217930724F48F8198859A83E0
:101E400089831C821B8210C02B813C818D819E81E5
:101E50008C01020F131F0E94A80FF80180838B8151
:101E60009C8101969C838B832B813C8189819A8103
:101E7000281739074CF3F981F987898529960FB618
:101E8000F894DEBF0FBECDBFCF91DF911F910F91B0
:101E90000895DF93CF930F920F92CDB7DEB7909155
:101EA000E0058091E105981719F41A82198225C07E
:101EB0009091E0058091E105981778F48091E10513
:101EC000282F30E08091E005882F90E0A901481B81
:101ED000590BCA019A83898310C08091E105282F8C
:101EE00030E08091E005882F90E0A901481B590B54
:101EF000CA0180589F4F9A83898389819A810F9064
:101F00000F90CF91DF910895DF93CF930F92CDB7CC
:101F1000DEB789830E94490F8F379105A9F0809120
:101F2000E105882F90E0FC01E05AFA4F8981808317
:101F30008091E1058F3719F41092E10505C0809179
:101F4000E1058F5F8093E1050F90CF91DF910895B8
:101F5000DF93CF930F920F92CDB7DEB79091E0054C
:101F60008091E105981719F48FEF8A8317C080914B
:101F7000E005882F90E0FC01E05AFA4F80818983C8
:101F80008091E0058F3719F41092E00505C080912B
:101F9000E0058F5F8093E00589818A838A810F90B5
:101FA0000F90CF91DF9108951F920F920FB60F926D
:101FB00000905B000F9211242F933F934F935F93F8
:101FC0006F937F938F939F93AF93BF93EF93FF9301
:101FD000DF93CF93CDB7DEB7EEECF0E080810E94C7
:101FE000840FCF91DF91FF91EF91BF91AF919F91BE
:101FF0008F917F916F915F914F913F912F910F90B2
:1020000000925B000F900FBE0F901F901895DF930A
:10201000CF9300D0CDB7DEB78B838B818A3059F454
:102020008DE089838AE08A83CE01019662E070E0C8
:102030000E94C40E08C08B818983CE01019661E0A5
:1020400070E00E94C40E80E090E00F900F900F901F
:10205000CF91DF910895DF93CF930F92CDB7DEB785
:102060000E94490F0097E1F30E94A80F898389819C
:102070008D3011F48AE089838981992787FD9095B5
:102080000F90CF91DF910895EF92FF920F931F93DE
:102090007B018C0120E030E040E05FE40E94F0131F
:1020A00088238CF0C801B70120E030E040E05FE415
:1020B0000E94BC110E94AE149B01AC012050304024
:1020C0004040504806C0C801B7010E94AE149B01B1
:1020D000AC01B901CA011F910F91FF90EF900895D3
:1020E000A0E0B0E0E6E7F0E10C94F716DC012B018C
:1020F000FA019C91923008F439C1EB018881823059
:1021000008F433C1943069F4843009F02FC111967A
:102110009C9111978981981709F428C1A6E5B2E02E
:1021200025C1843009F421C18230A9F4923009F02C
:102130001DC19A01AD0188E0EA010990AE01E901F3
:1021400009929E018150C1F7E201898111969C910B
:102150008923818308C1923009F407C112962D901A
:102160003C901397EB018A819B811496AD90BD90B2
:10217000CD90DC901797EC80FD800E811F8191013E
:10218000281B390BB90137FF04C066277727621B6C
:10219000730B603271050CF061C0121613066CF5FA
:1021A00037014801062E04C096948794779467946B
:1021B0000A94D2F721E030E040E050E004C0220F62
:1021C000331F441F551F6A95D2F7215030404040BD
:1021D00050402E213F214023512321153105410537
:1021E000510521F021E030E040E050E079018A0122
:1021F000E628F728082919293CC0232BD1F1260EFF
:10220000371E35014601062E04C0969487947794B4
:1022100067940A94D2F721E030E040E050E004C037
:10222000220F331F441F551F6A95D2F721503040AB
:10223000404050402A213B214C215D212115310590
:102240004105510521F021E030E040E050E0590126
:102250006A01A628B728C828D9280BC0821593057B
:102260002CF01C01AA24BB24650103C0EE24FF242A
:10227000870111969C91D20111968C91981709F4BF
:1022800045C0992339F0A80197012A193B094C0947
:102290005D0906C0A60195012E193F09400B510B9F
:1022A00057FD08C0118233822282248335834683FE
:1022B00057831DC081E0818333822282882799273A
:1022C000DC01821B930BA40BB50B84839583A6833F
:1022D000B7830DC0220F331F441F551F248335833E
:1022E00046835783828193810197938382832481DC
:1022F000358146815781DA01C9010197A109B109E8
:102300008F5F9F4FAF4FBF4328F30BC09183338242
:102310002282EA0CFB1C0C1D1D1DE482F582068343
:10232000178383E08083248135814681578157FF5D
:102330001AC0C901AA2797FDA095BA2F8170907085
:10234000A070B0705695479537952795822B932BA3
:10235000A42BB52B84839583A683B7838281938135
:10236000019693838283DF0101C0D201CD01CDB7F5
:10237000DEB7E2E10C941317A0E2B0E0E2ECF1E189
:102380000C94031769837A838B839C832D833E830C
:102390004F835887E9E0EE2EF12CEC0EFD1ECE01A6
:1023A0000196B7010E9426168E010F5E1F4FCE01C7
:1023B0000596B8010E9426168A8991E089278A8BA2
:1023C000C701B801AE01475E5F4F0E9470100E94C6
:1023D0005115A096E6E00C941F17A0E2B0E0E3EFE1
:1023E000F1E10C94031769837A838B839C832D839B
:1023F0003E834F835887F9E0EF2EF12CEC0EFD1E43
:10240000CE010196B7010E9426168E010F5E1F4F66
:10241000CE010596B8010E942616C701B801AE018B
:10242000475E5F4F0E9470100E945115A096E6E033
:102430000C941F17A0E2B0E0E0E2F2E10C94F71672
:1024400069837A838B839C832D833E834F83588754
:10245000CE010196BE01675F7F4F0E942616CE0116
:102460000596BE016F5E7F4F0E94261699859230B9
:1024700088F089898230C8F0943019F4823051F4A0
:1024800004C0843029F4923081F486E592E0C6C01D
:10249000923049F420E09A858A89981321E02A87AE
:1024A000CE010996BBC0823049F420E09A858A8922
:1024B000981321E02A8BCE014196B0C02D843E8432
:1024C0004F8458886D887E888F88988CEE24FF24EE
:1024D0008701AA24BB24650140E050E060E070E081
:1024E000E0E0F0E0C10181709070892BE9F0E60C2A
:1024F000F71C081D191D9A01AB012A0D3B1D4C1D2F
:102500005D1D80E090E0A0E0B0E0E614F70408056F
:10251000190520F481E090E0A0E0B0E0BA01A90143
:10252000480F591F6A1F7B1FAA0CBB1CCC1CDD1C4B
:1025300097FE08C081E090E0A0E0B0E0A82AB92AA8
:10254000CA2ADB2A3196E032F10549F0660C771C85
:10255000881C991C5694479437942794C3CFFA85C6
:10256000EA892B893C898B859C85280F391F2E5F32
:102570003F4F17C0CA0181709070892B61F016958A
:102580000795F794E79480E090E0A0E0B0E8E82AAF
:10259000F92A0A2B1B2B76956795579547952F5F40
:1025A0003F4F77FDE7CF0CC0440F551F661F771FC5
:1025B00017FD4160EE0CFF1C001F111F2150304021
:1025C000403090E0590790E0690790E4790760F3A4
:1025D0002B8F3C8FDB01CA018F779070A070B07099
:1025E00080349105A105B10561F447FD0AC0E114ED
:1025F000F1040105110529F0405C5F4F6F4F7F4FDB
:1026000040781A8EFE1711F081E08A8F4D8F5E8F11
:102610006F8F78A383E0898FCE0149960E94511570
:10262000A096E2E10C941317A8E1B0E0EAE1F3E12F
:102630000C94FF1669837A838B839C832D833E835E
:102640004F835887B9E0EB2EF12CEC0EFD1ECE0126
:102650000196B7010E9426168E010F5E1F4FCE0114
:102660000596B8010E9426162985223008F47EC0FE
:102670003989323010F4B8017CC08A859A8989275B
:102680008A87243011F0223031F4231709F06EC00C
:1026900066E572E06EC0343039F41D861E861F86F2
:1026A000188A1C861B8604C0323021F484E0898796
:1026B000B7015FC02B853C858B899C89281B390B12
:1026C0003C872B87ED84FE840F851889AD88BE88F2
:1026D000CF88D88CEA14FB040C051D0540F4EE0CE1
:1026E000FF1C001F111F215030403C872B8720E02A
:1026F00030E040E050E080E090E0A0E0B0E460E056
:1027000070E0EA14FB040C051D0540F0282B392B62
:102710004A2B5B2BEA18FB080C091D09B695A795F7
:1027200097958795EE0CFF1C001F111F6F5F7F4F61
:102730006F31710531F7DA01C9018F779070A070A0
:10274000B07080349105A105B10561F427FD0AC080
:10275000E114F1040105110529F0205C3F4F4F4FB2
:102760005F4F20782D873E874F87588BBE01675F6C
:102770007F4FCB010E9451156896EAE00C941B171D
:10278000A8E1B0E0E6ECF3E10C94031769837A83E7
:102790008B839C832D833E834F83588789E0E82E6B
:1027A000F12CEC0EFD1ECE010196B7010E942616FB
:1027B0008E010F5E1F4FCE010596B8010E942616AE
:1027C0008985823040F08989823028F0C701B801BC
:1027D0000E949E1601C08FEF6896E6E00C941F17CA
:1027E000A8E1B0E0E6EFF3E10C94031769837A8384
:1027F0008B839C832D833E834F83588789E0E82E0B
:10280000F12CEC0EFD1ECE010196B7010E9426169A
:102810008E010F5E1F4FCE010596B8010E9426164D
:102820008985823040F08989823028F0C701B8015B
:102830000E949E1601C08FEF6896E6E00C941F1769
:10284000A8E1B0E0E6E2F4E10C94031769837A832F
:102850008B839C832D833E834F83588789E0E82EAA
:10286000F12CEC0EFD1ECE010196B7010E9426163A
:102870008E010F5E1F4FCE010596B8010E942616ED
:102880008985823040F08989823028F0C701B801FB
:102890000E949E1601C081E06896E6E00C941F1726
:1028A000A8E0B0E0E6E5F4E10C9400179B01AC0170
:1028B00083E08983DA01C9018827B7FD83959927C9
:1028C000AA27BB27B82E211531054105510519F45A
:1028D00082E089833AC08823A9F0203080E038075D
:1028E00080E0480780E8580729F460E070E080E065
:1028F0009FEC30C0EE24FF248701E21AF30A040B98
:10290000150B02C079018A018EE1C82ED12CDC8220
:10291000CB82ED82FE820F831887C801B7010E9427
:10292000021501971816190684F4082E04C0EE0C3F
:10293000FF1C001F111F0A94D2F7ED82FE820F8345
:102940001887C81AD90ADC82CB82BA82CE010196D6
:102950000E9451152896E9E00C941C17ACE0B0E0F9
:10296000E4EBF4E10C94071769837A838B839C83EF
:10297000CE010196BE016B5F7F4F0E9426168D81AE
:10298000823061F1823050F1843021F48E818823CD
:1029900051F12EC02F81388537FD20C06E812F3137
:1029A00031051CF06623F9F023C08EE190E0821B14
:1029B000930B29853A854B855C8504C056954795D0
:1029C000379527958A95D2F76623B1F050954095B3
:1029D000309521953F4F4F4F5F4F0EC020E030E0C4
:1029E00040E050E009C02FEF3FEF4FEF5FE704C03A
:1029F00020E030E040E050E8B901CA012C96E2E066
:102A00000C942317EF92FF920F931F937B018C017D
:102A100080E0E81680E0F80681E0080780E018070B
:102A200088F48FEFE816F1040105110531F028F064
:102A300088E090E0A0E0B0E017C080E090E0A0E087
:102A4000B0E012C080E0E81680E0F80680E00807F9
:102A500081E0180728F088E190E0A0E0B0E004C031
:102A600080E190E0A0E0B0E020E230E040E050E023
:102A7000281B390B4A0B5B0B04C016950795F7947E
:102A8000E7948A95D2F7F701E25AFD4F8081281B1F
:102A9000310941095109C9011F910F91FF90EF9030
:102AA0000895DF92EF92FF920F931F93FC01E48051
:102AB000F58006811781D1808081823048F480E0E2
:102AC00090E0A0E1B0E0E82AF92A0A2B1B2BA5C070
:102AD000843009F49FC0823021F4EE24FF24870162
:102AE00005C0E114F1040105110519F4E0E0F0E07E
:102AF00096C0628173819FEF623879070CF05BC0EA
:102B000022E83FEF261B370B2A3131052CF020E05D
:102B100030E040E050E02AC0B801A701022E04C016
:102B200076956795579547950A94D2F781E090E09E
:102B3000A0E0B0E004C0880F991FAA1FBB1F2A9510
:102B4000D2F70197A109B1098E219F21A023B123BA
:102B50000097A105B10521F081E090E0A0E0B0E090
:102B60009A01AB01282B392B4A2B5B2BDA01C901C7
:102B70008F779070A070B07080349105A105B10579
:102B800039F427FF09C0205C3F4F4F4F5F4F04C00F
:102B9000215C3F4F4F4F5F4FE0E0F0E02030A0E07E
:102BA0003A07A0E04A07A0E45A0710F0E1E0F0E09D
:102BB00079018A0127C06038710564F5FB01E1588D
:102BC000FF4FD801C7018F779070A070B07080342C
:102BD0009105A105B10539F4E7FE0DC080E490E050
:102BE000A0E0B0E004C08FE390E0A0E0B0E0E80E29
:102BF000F91E0A1F1B1F17FF05C016950795F794AE
:102C0000E794319687E016950795F794E7948A95AF
:102C1000D1F705C0EE24FF248701EFEFF0E06E2F1F
:102C2000679566276795902F9F77D794DD24D79473
:102C30008E2F8695492F462B582F5D29B701CA0143
:102C40001F910F91FF90EF90DF900895FC01DB0141
:102C5000408151812281622F6F7770E0221F2227ED
:102C6000221F9381892F880F822B282F30E0991FF4
:102C70009927991F11969C93119721153105A9F554
:102C8000411551056105710511F482E037C082E8F4
:102C90009FEF13969C938E9312979A01AB0167E076
:102CA000220F331F441F551F6A95D1F783E08C9381
:102CB0000DC0220F331F441F551F12968D919C91FA
:102CC0001397019713969C938E931297203080E070
:102CD000380780E0480780E4580758F314962D938E
:102CE0003D934D935C93179708952F3F310579F4E9
:102CF000411551056105710519F484E08C9308951F
:102D000064FF03C081E08C9312C01C9210C02F5747
:102D1000304013963C932E93129783E08C9387E078
:102D2000440F551F661F771F8A95D1F7706414965C
:102D30004D935D936D937C93179708951F93DC01DA
:102D4000FB019C91923008F447C08081823008F4E6
:102D500043C0943051F411961C91843099F58181CF
:102D6000682F70E0611B71093FC0843021F0923000
:102D700031F48230B9F18181882389F12DC0119617
:102D80001C9111978230F1F081811817D9F41296B5
:102D90002D913C911397828193818217930794F030
:102DA00028173907BCF014968D919D910D90BC9118
:102DB000A02D2481358146815781281739074A077C
:102DC0005B0718F4112341F00AC082179307A40788
:102DD000B50740F4112319F061E070E005C06FEF12
:102DE0007FEF02C060E070E0CB011F9108952F9249
:102DF0003F924F925F926F927F928F929F92AF928B
:102E0000BF92CF92DF92EF92FF920F931F93CF93D7
:102E1000DF93CDB7DEB7CA1BDB0B0FB6F894DEBF6E
:102E20000FBECDBF19942A88398848885F846E8484
:102E30007D848C849B84AA84B984C884DF80EE80DE
:102E4000FD800C811B81AA81B981CE0FD11D0FB6E7
:102E5000F894DEBF0FBECDBFED0108950F931F9311
:102E6000CF93DF938C01EB01009731F4611571056D
:102E700019F420E030E038C081E090E06EE070E0CE
:102E80000E94091AFC019C01009771F180E883837C
:102E9000209771F0D387C28781E883838091EE0504
:102EA0009091EF05892B21F4F093EF05E093EE0567
:102EB00001151105C9F01187008783818260838322
:102EC0008091F0059091F105892B71F4F093F10553
:102ED000E093F0058091F2059091F305892B21F4A0
:102EE000F093F305E093F205C901DF91CF911F91B3
:102EF0000F910895CF93DF93EC014B8140FF1AC0EF
:102F000046FF0AC04F7B4B838E819F8101969F8332
:102F10008E838A81282F2BC042FF13C0E881F9815C
:102F20008081282F332727FD30952115310529F47D
:102F300040624B832FEF3FEF1BC03196F983E8834C
:102F400011C0EA85FB85CE0119959C0197FF0AC047
:102F50009B812F5F3F4F11F080E201C080E1892B00
:102F60008B83E8CF8E819F8101969F838E8330E093
:102F7000C901DF91CF910895DF93CF93CDB7DEB72D
:102F8000FE013696619171918091F0059091F10565
:102F9000AF010E940318CF91DF9108950F931F9303
:102FA000CF93DF938C01E091F005F091F1058381DF
:102FB00081FF21C0C0E0D0E00DC0E091F005F091AC
:102FC000F10520853185BF01F9011995892B11F093
:102FD000CFEFDFEFF80181918F01882371F7E09146
:102FE000F005F091F105208531858AE0BF01F901F6
:102FF0001995892B11F0CFEFDFEFCE01DF91CF9143
:103000001F910F9108952F923F924F925F926F926E
:103010007F928F929F92AF92BF92CF92DF92EF9268
:10302000FF920F931F93DF93CF93CDB7DEB72B970C
:103030000FB6F894DEBF0FBECDBF3C012B015A0185
:10304000FC0117821682838181FD03C06FEF7FEF41
:10305000C6C19AE0892E1E010894211C311CF3017F
:103060002381F20123FD859123FF81912F01882384
:1030700009F4B2C1853239F423FD859123FF819192
:103080002F01853229F490E0B3010E94471BE7CF5E
:10309000982FFF24EE249924FFE1FF15D0F09B32F6
:1030A00069F09C3228F4903259F0933291F40EC0BA
:1030B0009D3249F0903369F441E024C052E0F52A92
:1030C00084E0F82A28C098E0F92A25C0E0E1FE2A29
:1030D00022C0F7FC29C0892F80538A3070F4F6FE95
:1030E00005C0989C902C1124980E15C0E89CE02CEB
:1030F0001124E80EF0E2FF2A0EC09E3229F4F6FCFD
:103100006BC140E4F42A07C09C3619F450E8F52A54
:1031100002C0983649F4F20123FD959123FF919165
:103120002F01992309F0B8CF892F8554833018F0E7
:103130008052833038F444E050E0A40EB51E5FE3C3
:1031400059830FC0933631F0933779F0933509F0F6
:1031500056C020C0F5018081898342E050E0A40E72
:10316000B51E610101E010E012C0F501C080D18000
:10317000F6FC03C06FEF7FEF02C0692D70E042E004
:1031800050E0A40EB51EC6010E943C1B8C015FE7F7
:10319000F52214C0F501C080D180F6FC03C06FEFAA
:1031A0007FEF02C0692D70E042E050E0A40EB51E32
:1031B000C6010E942A1B8C0150E8F52AF3FE07C0C5
:1031C0001AC080E290E0B3010E94471BEA948E2D62
:1031D00090E008171907A8F30EC0F601F7FC8591D7
:1031E000F7FE81916F0190E0B3010E94471BE1104F
:1031F000EA94015010400115110579F7EAC09436A0
:1032000011F0993669F5F7FE08C0F501208131818A
:103210004281538184E090E00AC0F5018081918170
:103220009C01442737FD4095542F82E090E0A80E82
:10323000B91E9FE6F92257FF09C050954095309579
:1032400021953F4F4F4F5F4FE0E8FE2ACA01B90179
:10325000A1012AE030E00E94731BD82ED21840C092
:10326000953729F41F2D1F7E2AE030E01DC01F2D49
:10327000197F9F3661F0903720F4983509F0ACC083
:103280000FC0903739F0983709F0A6C004C028E085
:1032900030E00AC0106114FD146020E130E004C089
:1032A00014FD166020E132E017FF08C0F5016081CF
:1032B00071818281938144E050E008C0F5018081F2
:1032C0009181BC0180E090E042E050E0A40EB51E88
:1032D000A1010E94731BD82ED2188FE7F82EF1227D
:1032E000F6FE0BC05EEFF522D91438F4F4FE07C0E9
:1032F000F2FC05C08FEEF82202C01D2D01C0192D71
:10330000F4FE0DC0FE01ED0DF11D8081803319F436
:1033100099EEF92208C01F5FF2FE05C003C08F2D91
:10332000867809F01F5F0F2DF3FC14C0F0FE0FC06C
:103330001E1510F09D2C0BC09D2C9E0C911A1E2D5D
:1033400006C080E290E0B3010E94471B1F5F1E157C
:10335000C0F304C01E1510F4E11A01C0EE2404FFEE
:103360000FC080E390E0B3010E94471B02FF1DC025
:1033700001FD03C088E790E00EC088E590E00BC037
:10338000802F867891F001FF02C08BE201C080E2BD
:10339000F7FC8DE290E0B3010E94471B06C080E37A
:1033A00090E0B3010E94471B9A94D914C0F3DA94B9
:1033B000F101ED0DF11D808190E0B3010E94471BEA
:1033C000DD20A9F706C080E290E0B3010E94471B10
:1033D000EA94EE20C1F743CEF30166817781CB01F9
:1033E0002B960FB6F894DEBF0FBECDBFCF91DF9105
:1033F0001F910F91FF90EF90DF90CF90BF90AF9013
:103400009F908F907F906F905F904F903F902F9004
:1034100008950F931F93CF93DF93689F8001699F57
:10342000100D789F100D1124C8010E94251AEC017F
:10343000009729F060E070E0A8010E94351BCE01E2
:10344000DF91CF911F910F910895CF93DF93BC012E
:103450008230910510F462E070E0A091F605B09121
:10346000F705ED01E0E0F0E040E050E021C08881A8
:1034700099818617970769F48A819B81309719F0A3
:103480009383828304C09093F7058093F605FE0131
:1034900034C06817790738F44115510519F08417BD
:1034A000950708F4AC01FE018A819B819C01E9012A
:1034B0002097E9F641155105A9F1CA01861B970B22
:1034C000049708F4BA01E0E0F0E02AC08D919C91E5
:1034D000119784179507F9F46417750781F412960C
:1034E0008D919C911397309719F09383828304C038
:1034F0009093F7058093F605FD0132964FC0CA01FF
:10350000861B970BFD01E80FF91F619371930297DA
:103510008D939C9343C0FD01828193819C01D901CD
:103520001097A1F68091F4059091F505892B41F44F
:1035300080916003909161039093F5058093F40569
:1035400040916203509163034115510541F44DB719
:103550005EB780915E0390915F03481B590B2091E9
:10356000F4053091F50524173507B0F4CA01821B24
:10357000930B8617970780F0AB014E5F5F4F841760
:10358000950750F0420F531F5093F5054093F405F3
:10359000F9016193719302C0E0E0F0E0CF01DF91A7
:1035A000CF910895CF93DF93009709F450C0EC01B9
:1035B00022971B821A82A091F605B091F705109709
:1035C00009F140E050E0AC17BD0708F1BB83AA83C6
:1035D000FE0121913191E20FF31FAE17BF0779F47D
:1035E0008D919C911197280F391F2E5F3F4F398382
:1035F000288312968D919C9113979B838A83411502
:10360000510571F4D093F705C093F60520C01296CA
:103610008D919C911397AD01009711F0DC01D3CFF0
:10362000FA01D383C28321913191E20FF31FCE17A8
:10363000DF0769F488819981280F391F2E5F3F4F7A
:10364000FA01318320838A819B8193838283DF9176
:10365000CF910895FC010590615070400110D8F79A
:10366000809590958E0F9F1F0895DC0101C06D938A
:1036700041505040E0F70895FC01615070400190C6
:103680000110D8F7809590958E0F9F1F08950F9386
:103690001F93CF93DF938C01EB018B8181FF1BC0C4
:1036A00082FF0DC02E813F818C819D8128173907B3
:1036B00064F4E881F9810193F983E88306C0E88521
:1036C000F985802F1995892B31F48E819F81019680
:1036D0009F838E8302C00FEF1FEFC801DF91CF9150
:1036E0001F910F910895FA01AA27283051F1203136
:1036F00081F1E8946F936E7F6E5F7F4F8F4F9F4F86
:10370000AF4FB1E03ED0B4E03CD0670F781F891FC7
:103710009A1FA11D680F791F8A1F911DA11D6A0F95
:10372000711D811D911DA11D20D009F468943F9148
:103730002AE0269F11243019305D3193DEF6CF0147
:103740000895462F4770405D4193B3E00FD0C9F70D
:10375000F6CF462F4F70405D4A3318F0495D31FD7A
:103760004052419302D0A9F7EACFB4E0A6959795CD
:10377000879577956795BA95C9F7009761057105A3
:1037800008959B01AC010A2E0694579547953795ED
:103790002795BA95C9F7620F731F841F951FA01D47
:0637A0000895F894FFCF2C
:1037A6000100010000000100010000000000657238
:1037B600726F7220696E697469616C697A696E6785
:1037C6002074696D6520696E746572727570740017
:1037D6006572726F7220696E697469616C697A6963
:1037E6006E672061646300532025643A20256420B7
:1037F600202000200D000000000000000000000155
:103806000202030303030404040404040404050578
:103816000505050505050505050505050505060650
:103826000606060606060606060606060606060632
:103836000606060606060606060606060606070720
:103846000707070707070707070707070707070702
:1038560007070707070707070707070707070707F2
:1038660007070707070707070707070707070707E2
:1038760007070707070707070707070707070808D0
:1038860008080808080808080808080808080808B2
:1038960008080808080808080808080808080808A2
:1038A6000808080808080808080808080808080892
:1038B6000808080808080808080808080808080882
:1038C6000808080808080808080808080808080872
:1038D6000808080808080808080808080808080862
:1038E6000808080808080808080808080808080852
:1038F6000808080808080808080808080808200032
:04390600F8050000C0
:00000001FF
