:100000000C9466000C947F000C947F000C947F008D
:100010000C947F000C947F000C947F000C947F0064
:100020000C947F000C947F000C947F000C947F0054
:100030000C947F000C947F000C947F000C947F0044
:100040000C947F000C947F000C947F000C947F0034
:100050000C947F000C947F000C947F000C947F0024
:100060000C947F000C947F000C947F000C947F0014
:100070000C947F000C947F000C947F000C947F0004
:100080000C947F000C947F000C947F000C947F00F4
:100090000C947F000C947F000C947F000C947F00E4
:1000A0000C947F000C947F000C947F000C947F00D4
:1000B0000C947F000C947F000C947F000C947F00C4
:1000C0000C947F000C947F000C947F0011241FBEC1
:1000D000CFEFD1E2DEBFCDBF00E00CBF12E0A0E069
:1000E000B2E0EEE4F1E000E00BBF02C007900D9239
:1000F000A030B107D9F70E9481000C94A5000C94A0
:1001000000008FE787B98EE788B980E78AB981E177
:100110008BB98CE08DB980EF8EB99FE780E8649948
:1001200002C04498FCCF659902C04398F8CF669905
:1001300002C04598F4CF679902C04698F0CF48991D
:0E01400002C088B9ECCF98B9EACFF894FFCF8F
:00000001FF
