:100000000C9466000C9487000C9487000C94870075
:100010000C9487000C9487000C9487000C94870044
:100020000C9487000C9487000C9487000C94870034
:100030000C9487000C9487000C9487000C94870024
:100040000C9487000C9487000C9487000C94870014
:100050000C9487000C9487000C9487000C94870004
:100060000C9487000C94FC060C9487000C94870079
:100070000C9487000C9487000C9487000C948700E4
:100080000C9487000C9487000C9487000C948700D4
:100090000C9456020C9487000C9487000C948700F3
:1000A0000C9487000C9487000C9487000C948700B4
:1000B0000C9487000C9487000C9487000C948700A4
:1000C0000C9487000C9487000C94870011241FBEA9
:1000D000CFEFD1E2DEBFCDBF00E00CBF14E0A0E067
:1000E000B2E0E6EEF4E200E00BBF02C007900D9232
:1000F000AC3EB107D9F717E0ACEEB4E001C01D92F9
:10010000A037B107E1F70E94FC000C9471120C9427
:10011000000081E090E00E942E03019721F480E02E
:1001200092E00E946E0E82E090E00E942E03019702
:1001300021F485E192E00E946E0E84E090E00E943E
:100140002E03019721F488E292E00E946E0E88E06F
:1001500090E00E942E03019721F488E392E00E9430
:100160006E0E80E190E00E942E03019721F48CE452
:1001700092E00E946E0E80E290E00E942E030197B2
:1001800021F48CE592E00E946E0E80E490E00E94E3
:100190002E03019721F48CE692E00E946E0E0895E2
:1001A00084309105A9F08530910534F482309105B1
:1001B00061F00397E1F40FC08630910591F086302D
:1001C000910564F0079799F40FC084E892E011C09C
:1001D00085EB92E00EC081EE92E00BC084E193E0EB
:1001E00008C081E493E005C08CE693E002C085E995
:1001F00093E00E946E0E0895AF92BF92CF92DF926D
:10020000EF92FF920F931F93DF93CF9300D00F9243
:10021000CDB7DEB71A8219828FEF93E09C838B8370
:1002200060E071EE80E090E00E94E80280E090E003
:1002300061E070E00E941805789481EB93E00E94E1
:100240006E0EEE24FF2442EDA42E43E0B42E6E0188
:100250000894C11CD11C81E090E06EE270E00E9425
:10026000E7048C010E941B038130910509F03FC017
:10027000012BA1F480E090E0EF2811F481E090E000
:100280007C01FC01EE0FFF1FEC0DFD1D4081518133
:1002900081E090E06EE170E00E9496040E94890087
:1002A00081E090E064E270E00E94B10400D000D0F0
:1002B000EDB7FEB73196ADB7BEB71296BC92AE920F
:1002C0001197D701AA0FBB1FAC0DBD1D2D913C91FD
:1002D00033832283958384830E945C0E8DB79EB7FF
:1002E00006960FB6F8949EBF0FBE8DBFB4CF0E9486
:1002F000D000B1CFAC0120E030E00CC08091C8004C
:1003000085FFFCCFFA01E20FF31F80818093CE00BE
:100310002F5F3F4F261737078CF30895DC0190912C
:100320006C0580916D05981711F480E00895909107
:100330006C0580916D05981719F420E030E017C026
:1003400090916C0580916D05981738F480916D053A
:1003500090916C05282F30E008C080916D05909138
:100360006C05282F30E020583F4F291B3109A90187
:10037000621773070CF4AB0120E030E020C09091CD
:100380006C0580916D05981711F49FEF12C0E091F4
:100390006C05F0E0E451FB4F908180916C058F3744
:1003A00019F410926C0505C080916C058F5F8093E5
:1003B0006C05FD01E20FF31F90832F5F3F4F241761
:1003C0003507ECF2842F089590916C0580916D05AE
:1003D000981719F420E030E017C090916C058091D7
:1003E0006D05981738F480916D0590916C05282F54
:1003F00030E008C080916D0590916C05282F30E0A9
:1004000020583F4F291B3109C9010895482F909169
:100410006C0580916D059817D1F090916C058091D5
:100420006D05981738F480916D0590916C05282F13
:1004300030E008C080916D0590916C05282F30E068
:1004400020583F4F291B31092F37310591F0E0919A
:100450006D05F0E0E451FB4F408380916D058F37CF
:1004600019F410926D05089580916D058F5F80934A
:100470006D05089590916C0580916D05981711F4A4
:10048000EFEF12C0E0916C05F0E0E451FB4FE0812A
:1004900080916C058F3719F410926C0505C080911E
:1004A0006C058F5F80936C058E2F08951F920F92BD
:1004B0000FB60F920BB60F9211242F933F934F93C9
:1004C0005F936F937F938F939F93AF93BF93EF93BC
:1004D000FF938091CE000E940602FF91EF91BF91A1
:1004E000AF919F918F917F916F915F914F913F91CC
:1004F0002F910F900BBE0F900FBE0F901F9018956D
:10050000DF93CF930F920F92CDB7DEB7982F8A303B
:1005100099F48DE089839A83FE0131969E012D5FC7
:100520003F4F8091C80085FFFCCF81918093CE0022
:10053000E217F307B1F706C08091C80085FFFCCF32
:100540009093CE0080E090E00F900F90CF91DF91DC
:10055000089590916C0580916D059817D1F3909155
:100560006C0580916D05981738F480916D05909118
:100570006C05282F30E008C080916D0590916C05C6
:10058000282F30E020583F4F291B3109232B09F336
:1005900090916C0580916D05981711F4EFEF15C0DF
:1005A000E0916C05F0E0E451FB4FE08180916C0537
:1005B0008F3719F410926C0505C080916C058F5F20
:1005C00080936C05ED3009F4EAE08E2F90E00895F9
:1005D0000E94320B9B01AC0160E074E284EF99E46D
:1005E0000E94F6090E9426076150704022E4209381
:1005F000C80028E92093C90026E02093CA002FEF05
:100600002093CE0010926C0510926D05272F332792
:1006100027FD3A952093CD006093CC007298739A91
:1006200080E892E069EA72E00E94100E90936F05F4
:1006300080936E0508958091DB039091DC0308950B
:10064000809372050895809374050895FC01E05924
:10065000FA4F6583089580937305089520E030E094
:1006600090911406982311F021E030E0C90108951B
:100670008091130690E00895FC01E05FF94F8581B9
:1006800090E00895362F20E0280F391FC901089502
:10069000282F30E0C90108958070892F90E00895D7
:1006A0000F931F93CF93DF93809158069091590633
:1006B000892B09F4BBC0809172058E3F09F4ACC050
:1006C0008091DB039091DC03892B29F4109257066B
:1006D00086E0809356068091570690E0609156061A
:1006E00070E0681B790B805F994F0E94CF06909154
:1006F0005706980F9093570680915606981720F446
:100700000E94D905019771F070915706472F50E06C
:10071000DA0111978A010250104060E0ED01C05FDC
:10072000D94F18C080915706882309F072C086E01F
:1007300090E074C0F901E05FF94F80818F3F19F4B8
:1007400081818F3F61F02017310719F488818F3F35
:1007500031F06F5F262F30E02A173B075CF36623EA
:10076000A1F090E0421B530B08C0E05FF94FDF019E
:10077000A20FB31F8C9180839F5FE92FF0E0E417F5
:10078000F5079CF3761B70935706209157068091CE
:100790005606281730F1909172058091120698172D
:1007A000C1F5609113066C5F60935606261790F4AE
:1007B000822F90E070E0681B790B805F994F0E9458
:1007C000CF0690915706980F909357068091560642
:1007D000981738F080911306A82FB0E020E090E041
:1007E0000CC085E090E09093DC038093DB031EC097
:1007F000E05FF94F8281980F2F5FE22FF0E0AE1794
:10080000BF07B4F7A05FB94F909513968C918917E5
:1008100019F087E090E002C081E090E09093DC0363
:100820008093DB031092590610925806DF91CF9106
:100830001F910F9108951F9380915806909159062A
:10084000019709F460C081E090E09093590680938D
:10085000580680917305893940F490917405892F69
:100860008150863028F0933819F084E090E031C050
:100870008FEF809370058093710580917305A82F89
:10088000B0E020E090E005C0E059FA4F8281980F77
:100890002F5FE22FF0E0AE17BF07B4F7A059BA4FB1
:1008A000909513969C938091DB039091DC030697BF
:1008B000029710F40E949F05109173051C5F80E75A
:1008C00095E0612F70E00E94A405181759F082E0AE
:1008D00090E09093DC038093DB0310925906109212
:1008E000580611C080917405823029F480917605F4
:1008F00090E0069602C086E090E00E94C805109243
:10090000DC031092DB031F9108950E941B04809169
:10091000DB039091DC03892B41F40E94500380910A
:10092000DB039091DC030597C1F30895282F809194
:10093000580690915906892B99F42093720583E00B
:100940008093740560937505CA01409376058070A5
:100950009093770585E0809373050E948504089540
:10096000FFCF282F8091580690915906892BB9F412
:100970002093720582E080937405609375058093DF
:10098000760584E0809373050E94850430911606F5
:1009900020E080911506280F311DC9010895FFCF71
:1009A000282F8091580690915906892B79F420932D
:1009B000720583E080937405609375054093760516
:1009C00084E0809373050E9485040895FFCF282F4B
:1009D0008091580690915906892B99F420937205BD
:1009E00082E0809374056093750581E080937605BD
:1009F00084E0809373050E9485048091150690E041
:100A00000895FFCF282F8091580690915906892B81
:100A100059F42093720581E08093740582E08093FD
:100A200073050E9485040895FFCF0E949E050895D6
:100A30000F931F938C016F5F7F4F882777FD809501
:100A4000982F0E94320B9B01AC0160E074E284EFAE
:100A500099E40E94F609AB01BC01C8010E9445055A
:100A6000892B19F420E030E00CC081E090E09093F5
:100A7000DC038093DB03109259061092580621E0A4
:100A800030E0C9011F910F910895EF92FF920F93EB
:100A90001F937A018B0182E48093C00088E98093E0
:100AA000C10086E08093C20060E074E284EF99E4C4
:100AB000A80197010E94F6090E9426076150704024
:100AC0007093C5006093C40060E074E284E799E429
:100AD000A80197010E94F60920E030E040E451E4CB
:100AE0000E94FC0860935E0770935F078093600725
:100AF0009093610720915E0730915F0740916007F6
:100B00005091610760E070E08AE793E40E94F60983
:100B10000E94260770935D0760935C077298739A32
:100B20008FEF8093C60010925A0710925B0781E006
:100B300090E01F910F91FF90EF900895089580919C
:100B40005B0780935A070895AC01F8947398729AE2
:100B500020E030E011C08091C00085FFFCCF809183
:100B6000C00080648093C000FA01E20FF31F80810F
:100B70008093C6002F5F3F4F2617370764F380919D
:100B8000C00086FFFCCF7298739A7894C9010895CB
:100B9000109265071092640720915C0730915D0701
:100BA000265F3F4F280F391F30936307209362075A
:100BB0000895AF92BF92CF92DF92EF92FF920F9380
:100BC0001F93809164079091650701969093650744
:100BD00080936407209164073091650780916207D4
:100BE000909163078217930718F421E030E074C0F6
:100BF000A0905E07B0905F07C0906007D09061073B
:100C0000C601B5012BEA3AEA4AEA50E40E94FC0820
:100C10007B018C0120E030E040E85FE30E94020BA2
:100C2000882314F461E054C0C801B70120E030E02B
:100C30004FE753E40E94A20A18160CF045C0C60103
:100C4000B50120E030E04AE754E40E94F6095B0178
:100C50006C0120E030E04AE755E40E94FC087B018B
:100C60008C0120E030E040E85FE30E94020B882323
:100C70001CF461E070E024C0C801B70120E03FEF40
:100C80004FE757E40E94A20A1816B4F4C601B50152
:100C900020E030E040E251E40E94FC080E94260778
:100CA00080E991E005C0FC013197F1F76150704097
:100CB00061157105C1F70EC0C801B7010E94260772
:100CC000CB010197F1F706C0C801B7010E942607C2
:100CD0006A95F1F720E030E0C9011F910F91FF9074
:100CE000EF90DF90CF90BF90AF90089590915A070A
:100CF00080915B07981719F420E030E017C09091BD
:100D00005A0780915B07981738F480915B079091A0
:100D10005A07282F30E008C080915B0790915A074E
:100D2000282F30E020503F4F291B3109C901089579
:100D30001F93182F0E9476068F3F910591F0E09146
:100D40005B07F0E0E65AF94F108380915B078F3F15
:100D500019F410925B0705C080915B078F5F809349
:100D60005B071F91089590915A0780915B07981730
:100D700011F4EFEF12C0E0915A07F0E0E65AF94F94
:100D8000E08180915A078F3F19F410925A0705C0ED
:100D900080915A078F5F80935A078E2F0895EF92A4
:100DA000FF920F931F93CF93DF937C01EB01909100
:100DB0005A0780915B07981719F400E010E014C0FF
:100DC0000E9476068C01C817D9070CF48E01C0E08A
:100DD000D0E007C00E94B306F701EC0FFD1F80832F
:100DE0002196C017D107B4F3C801DF91CF911F91AD
:100DF0000F91FF90EF9008951F920F920FB60F92F0
:100E00000BB60F9211242F933F934F935F936F93E1
:100E10007F938F939F93AF93BF93EF93FF938091B3
:100E2000C6000E949806FF91EF91BF91AF919F91EC
:100E30008F917F916F915F914F913F912F910F9083
:100E40000BBE0F900FBE0F901F901895EF92FF9260
:100E50000F931F937B018C0120E030E040E05FE4C2
:100E60000E94D20A88238CF0C801B70120E030E04C
:100E700040E05FE40E949E080E94900B9B01AC0141
:100E8000205030404040504806C0C801B7010E9481
:100E9000900B9B01AC01B901CA011F910F91FF900A
:100EA000EF900895A0E0B0E0E8E5F7E00C94D90DEC
:100EB000DC012B01FA019C91923008F439C1EB015D
:100EC0008881823008F433C1943069F4843009F0A9
:100ED0002FC111969C9111978981981709F428C107
:100EE000ADEDB3E025C1843009F421C18230A9F40D
:100EF000923009F01DC19A01AD0188E0EA01099024
:100F0000AE01E90109929E018150C1F7E201898198
:100F100011969C918923818308C1923009F407C1FD
:100F200012962D903C901397EB018A819B81149629
:100F3000AD90BD90CD90DC901797EC80FD800E8138
:100F40001F819101281B390BB90137FF04C06627A7
:100F50007727621B730B603271050CF061C01216AB
:100F600013066CF537014801062E04C09694879449
:100F7000779467940A94D2F721E030E040E050E0A3
:100F800004C0220F331F441F551F6A95D2F721500A
:100F90003040404050402E213F2140235123211515
:100FA00031054105510521F021E030E040E050E0FD
:100FB00079018A01E628F728082919293CC0232B42
:100FC000D1F1260E371E35014601062E04C0969437
:100FD0008794779467940A94D2F721E030E040E058
:100FE00050E004C0220F331F441F551F6A95D2F7EB
:100FF00021503040404050402A213B214C215D216E
:10100000211531054105510521F021E030E040E096
:1010100050E059016A01A628B728C828D9280BC072
:10102000821593052CF01C01AA24BB24650103C082
:10103000EE24FF24870111969C91D20111968C9188
:10104000981709F445C0992339F0A80197012A1986
:101050003B094C095D0906C0A60195012E193F09FF
:10106000400B510B57FD08C011823382228224832A
:101070003583468357831DC081E08183338222827A
:1010800088279927DC01821B930BA40BB50B848363
:101090009583A683B7830DC0220F331F441F551FAE
:1010A0002483358346835783828193810197938379
:1010B00082832481358146815781DA01C9010197F4
:1010C000A109B1098F5F9F4FAF4FBF4328F30BC0FA
:1010D000918333822282EA0CFB1C0C1D1D1DE482CD
:1010E000F5820683178383E08083248135814681DE
:1010F000578157FF1AC0C901AA2797FDA095BA2F9B
:1011000081709070A070B07056954795379527956F
:10111000822B932BA42BB52B84839583A683B78333
:1011200082819381019693838283DF0101C0D20182
:10113000CD01CDB7DEB7E2E10C94F50DA0E2B0E051
:10114000E4EAF8E00C94E50D69837A838B839C8351
:101150002D833E834F835887E9E0EE2EF12CEC0E71
:10116000FD1ECE010196B7010E94080D8E010F5E93
:101170001F4FCE010596B8010E94080D8A8991E0A3
:1011800089278A8BC701B801AE01475E5F4F0E9475
:1011900052070E94330CA096E6E00C94010EA0E2E8
:1011A000B0E0E5EDF8E00C94E50D69837A838B837C
:1011B0009C832D833E834F835887F9E0EF2EF12CDB
:1011C000EC0EFD1ECE010196B7010E94080D8E01A6
:1011D0000F5E1F4FCE010596B8010E94080DC70192
:1011E000B801AE01475E5F4F0E9452070E94330C68
:1011F000A096E6E00C94010EA0E2B0E0E2E0F9E097
:101200000C94D90D69837A838B839C832D833E83D1
:101210004F835887CE010196BE01675F7F4F0E94C2
:10122000080DCE010596BE016F5E7F4F0E94080D2E
:101230009985923088F089898230C8F0943019F409
:10124000823051F404C0843029F4923081F48DED61
:1012500093E0C6C0923049F420E09A858A899813B9
:1012600021E02A87CE010996BBC0823049F420E0F4
:101270009A858A89981321E02A8BCE014196B0C0C5
:101280002D843E844F8458886D887E888F88988C02
:10129000EE24FF248701AA24BB24650140E050E02E
:1012A00060E070E0E0E0F0E0C10181709070892BB7
:1012B000E9F0E60CF71C081D191D9A01AB012A0D77
:1012C0003B1D4C1D5D1D80E090E0A0E0B0E0E61409
:1012D000F7040805190520F481E090E0A0E0B0E0F3
:1012E000BA01A901480F591F6A1F7B1FAA0CBB1C1A
:1012F000CC1CDD1C97FE08C081E090E0A0E0B0E0CF
:10130000A82AB92ACA2ADB2A3196E032F10549F027
:10131000660C771C881C991C569447943794279424
:10132000C3CFFA85EA892B893C898B859C85280F58
:10133000391F2E5F3F4F17C0CA0181709070892BF3
:1013400061F016950795F794E79480E090E0A0E0AF
:10135000B0E8E82AF92A0A2B1B2B76956795579552
:1013600047952F5F3F4F77FDE7CF0CC0440F551FC8
:10137000661F771F17FD4160EE0CFF1C001F111F39
:1013800021503040403090E0590790E0690790E4E8
:10139000790760F32B8F3C8FDB01CA018F77907048
:1013A000A070B07080349105A105B10561F447FDCE
:1013B0000AC0E114F1040105110529F0405C5F4FFA
:1013C0006F4F7F4F40781A8EFE1711F081E08A8FA1
:1013D0004D8F5E8F6F8F78A383E0898FCE01499602
:1013E0000E94330CA096E2E10C94F50DA8E1B0E068
:1013F000ECEFF9E00C94E10D69837A838B839C8395
:101400002D833E834F835887B9E0EB2EF12CEC0EF1
:10141000FD1ECE010196B7010E94080D8E010F5EE0
:101420001F4FCE010596B8010E94080D2985223074
:1014300008F47EC03989323010F4B8017CC08A8546
:101440009A8989278A87243011F0223031F42317B2
:1014500009F06EC06DED73E06EC0343039F41D8656
:101460001E861F86188A1C861B8604C0323021F413
:1014700084E08987B7015FC02B853C858B899C8977
:10148000281B390B3C872B87ED84FE840F85188938
:10149000AD88BE88CF88D88CEA14FB040C051D05E6
:1014A00040F4EE0CFF1C001F111F215030403C8700
:1014B0002B8720E030E040E050E080E090E0A0E0CA
:1014C000B0E460E070E0EA14FB040C051D0540F098
:1014D000282B392B4A2B5B2BEA18FB080C091D091A
:1014E000B695A79597958795EE0CFF1C001F111FC9
:1014F0006F5F7F4F6F31710531F7DA01C9018F7767
:101500009070A070B07080349105A105B10561F4B0
:1015100027FD0AC0E114F1040105110529F0205C42
:101520003F4F4F4F5F4F20782D873E874F87588B17
:10153000BE01675F7F4FCB010E94330C6896EAE0E3
:101540000C94FD0DA8E1B0E0E8EAFAE00C94E50D9A
:1015500069837A838B839C832D833E834F83588753
:1015600089E0E82EF12CEC0EFD1ECE010196B701AC
:101570000E94080D8E010F5E1F4FCE010596B80127
:101580000E94080D8985823040F08989823028F0D8
:10159000C701B8010E94800D01C08FEF6896E6E098
:1015A0000C94010EA8E1B0E0E8EDFAE00C94E50D32
:1015B00069837A838B839C832D833E834F835887F3
:1015C00089E0E82EF12CEC0EFD1ECE010196B7014C
:1015D0000E94080D8E010F5E1F4FCE010596B801C7
:1015E0000E94080D8985823040F08989823028F078
:1015F000C701B8010E94800D01C08FEF6896E6E038
:101600000C94010EA8E1B0E0E8E0FBE00C94E50DDD
:1016100069837A838B839C832D833E834F83588792
:1016200089E0E82EF12CEC0EFD1ECE010196B701EB
:101630000E94080D8E010F5E1F4FCE010596B80166
:101640000E94080D8985823040F08989823028F017
:10165000C701B8010E94800D01C081E06896E6E0F4
:101660000C94010EA8E0B0E0E8E3FBE00C94E20D7E
:101670009B01AC0183E08983DA01C9018827B7FDAA
:1016800083959927AA27BB27B82E21153105410537
:10169000510519F482E089833AC08823A9F02030EB
:1016A00080E0380780E0480780E8580729F460E0C8
:1016B00070E080E09FEC30C0EE24FF248701E21A46
:1016C000F30A040B150B02C079018A018EE1C82EC2
:1016D000D12CDC82CB82ED82FE820F831887C80179
:1016E000B7010E94E40B01971816190684F4082E1E
:1016F00004C0EE0CFF1C001F111F0A94D2F7ED82EC
:10170000FE820F831887C81AD90ADC82CB82BA827C
:10171000CE0101960E94330C2896E9E00C94FE0D50
:10172000ACE0B0E0E6E9FBE00C94E90D69837A8374
:101730008B839C83CE010196BE016B5F7F4F0E941D
:10174000080D8D81823061F1823050F1843021F4B6
:101750008E81882351F12EC02F81388537FD20C01E
:101760006E812F3131051CF06623F9F023C08EE124
:1017700090E0821B930B29853A854B855C8504C0DC
:1017800056954795379527958A95D2F76623B1F0F8
:1017900050954095309521953F4F4F4F5F4F0EC06C
:1017A00020E030E040E050E009C02FEF3FEF4FEF86
:1017B0005FE704C020E030E040E050E8B901CA0132
:1017C0002C96E2E00C94050EEF92FF920F931F937C
:1017D0007B018C0180E0E81680E0F80681E00807D4
:1017E00080E0180788F48FEFE816F1040105110571
:1017F00031F028F088E090E0A0E0B0E017C080E091
:1018000090E0A0E0B0E012C080E0E81680E0F806CA
:1018100080E0080781E0180728F088E190E0A0E068
:10182000B0E004C080E190E0A0E0B0E020E230E071
:1018300040E050E0281B390B4A0B5B0B04C01695A7
:101840000795F794E7948A95D2F7F701EB51FC4F8F
:101850008081281B310941095109C9011F910F914C
:10186000FF90EF900895DF92EF92FF920F931F93F6
:10187000FC01E480F58006811781D180808182306F
:1018800048F480E090E0A0E1B0E0E82AF92A0A2BD1
:101890001B2BA5C0843009F49FC0823021F4EE24B4
:1018A000FF24870105C0E114F1040105110519F4B5
:1018B000E0E0F0E096C0628173819FEF62387907C3
:1018C0000CF05BC022E83FEF261B370B2A313105B5
:1018D0002CF020E030E040E050E02AC0B801A70141
:1018E000022E04C076956795579547950A94D2F7CE
:1018F00081E090E0A0E0B0E004C0880F991FAA1F2B
:10190000BB1F2A95D2F70197A109B1098E219F210A
:10191000A023B1230097A105B10521F081E090E05B
:10192000A0E0B0E09A01AB01282B392B4A2B5B2BAE
:10193000DA01C9018F779070A070B0708034910582
:10194000A105B10539F427FF09C0205C3F4F4F4F77
:101950005F4F04C0215C3F4F4F4F5F4FE0E0F0E02E
:101960002030A0E03A07A0E04A07A0E45A0710F0B0
:10197000E1E0F0E079018A0127C06038710564F583
:10198000FB01E158FF4FD801C7018F779070A0701D
:10199000B07080349105A105B10539F4E7FE0DC0A2
:1019A00080E490E0A0E0B0E004C08FE390E0A0E02D
:1019B000B0E0E80EF91E0A1F1B1F17FF05C01695A1
:1019C0000795F794E794319687E016950795F79475
:1019D000E7948A95D1F705C0EE24FF248701EFEF45
:1019E000F0E06E2F679566276795902F9F77D794C5
:1019F000DD24D7948E2F8695492F462B582F5D29AD
:101A0000B701CA011F910F91FF90EF90DF900895E9
:101A1000FC01DB01408151812281622F6F7770E0F0
:101A2000221F2227221F9381892F880F822B282F84
:101A300030E0991F9927991F11969C9311972115B2
:101A40003105A9F5411551056105710511F482E0D3
:101A500037C082E89FEF13969C938E9312979A015A
:101A6000AB0167E0220F331F441F551F6A95D1F762
:101A700083E08C930DC0220F331F441F551F129615
:101A80008D919C911397019713969C938E93129727
:101A9000203080E0380780E0480780E4580758F39A
:101AA00014962D933D934D935C93179708952F3F74
:101AB000310579F4411551056105710519F484E08A
:101AC0008C93089564FF03C081E08C9312C01C9234
:101AD00010C02F57304013963C932E93129783E0FB
:101AE0008C9387E0440F551F661F771F8A95D1F7A7
:101AF000706414964D935D936D937C93179708953E
:101B00001F93DC01FB019C91923008F447C0808157
:101B1000823008F443C0943051F411961C91843003
:101B200099F58181682F70E0611B71093FC0843095
:101B300021F0923031F48230B9F18181882389F12A
:101B40002DC011961C9111978230F1F081811817E8
:101B5000D9F412962D913C9113978281938182172B
:101B6000930794F028173907BCF014968D919D9136
:101B70000D90BC91A02D2481358146815781281775
:101B800039074A075B0718F4112341F00AC082178E
:101B90009307A407B50740F4112319F061E070E042
:101BA00005C06FEF7FEF02C060E070E0CB011F91D6
:101BB00008952F923F924F925F926F927F928F92F1
:101BC0009F92AF92BF92CF92DF92EF92FF920F93CC
:101BD0001F93CF93DF93CDB7DEB7CA1BDB0B0FB6D6
:101BE000F894DEBF0FBECDBF19942A883988488883
:101BF0005F846E847D848C849B84AA84B984C88429
:101C0000DF80EE80FD800C811B81AA81B981CE0F1F
:101C1000D11D0FB6F894DEBF0FBECDBFED01089504
:101C20000F931F93CF93DF938C01EB01009731F457
:101C30006115710519F420E030E038C081E090E0D2
:101C40006EE070E00E94A910FC019C01009771F108
:101C500080E88383209771F0D387C28781E88383EC
:101C60008091660790916707892B21F4F0936707AD
:101C7000E093660701151105C9F01187008783817C
:101C8000826083838091680790916907892B71F442
:101C9000F0936907E093680780916A0790916B075A
:101CA000892B21F4F0936B07E0936A07C901DF9158
:101CB000CF911F910F910895DF93CF93CDB7DEB7EA
:101CC000FE01369661917191809168079091690744
:101CD000AF010E94A30ECF91DF9108950F931F9340
:101CE000CF93DF938C01E0916807F09169078381BE
:101CF00081FF21C0C0E0D0E00DC0E0916807F09105
:101D0000690720853185BF01F9011995892B11F0EB
:101D1000CFEFDFEFF80181918F01882371F7E09118
:101D20006807F0916907208531858AE0BF01F901D4
:101D30001995892B11F0CFEFDFEFCE01DF91CF9115
:101D40001F910F9108952F923F924F925F926F9241
:101D50007F928F929F92AF92BF92CF92DF92EF923B
:101D6000FF920F931F93DF93CF93CDB7DEB72B97DF
:101D70000FB6F894DEBF0FBECDBF3C012B015A0158
:101D8000FC0117821682838181FD03C06FEF7FEF14
:101D9000C6C19AE0892E1E010894211C311CF30152
:101DA0002381F20123FD859123FF81912F01882357
:101DB00009F4B2C1853239F423FD859123FF819165
:101DC0002F01853229F490E0B3010E94E711E7CF9B
:101DD000982FFF24EE249924FFE1FF15D0F09B32C9
:101DE00069F09C3228F4903259F0933291F40EC08D
:101DF0009D3249F0903369F441E024C052E0F52A65
:101E000084E0F82A28C098E0F92A25C0E0E1FE2AFB
:101E100022C0F7FC29C0892F80538A3070F4F6FE67
:101E200005C0989C902C1124980E15C0E89CE02CBD
:101E30001124E80EF0E2FF2A0EC09E3229F4F6FCCF
:101E40006BC140E4F42A07C09C3619F450E8F52A27
:101E500002C0983649F4F20123FD959123FF919138
:101E60002F01992309F0B8CF892F8554833018F0BA
:101E70008052833038F444E050E0A40EB51E5FE396
:101E800059830FC0933631F0933779F0933509F0C9
:101E900056C020C0F5018081898342E050E0A40E45
:101EA000B51E610101E010E012C0F501C080D180D3
:101EB000F6FC03C06FEF7FEF02C0692D70E042E0D7
:101EC00050E0A40EB51EC6010E94DC118C015FE734
:101ED000F52214C0F501C080D180F6FC03C06FEF7D
:101EE0007FEF02C0692D70E042E050E0A40EB51E05
:101EF000C6010E94CA118C0150E8F52AF3FE07C002
:101F00001AC080E290E0B3010E94E711EA948E2D9E
:101F100090E008171907A8F30EC0F601F7FC8591A9
:101F2000F7FE81916F0190E0B3010E94E711E1108B
:101F3000EA94015010400115110579F7EAC0943672
:101F400011F0993669F5F7FE08C0F501208131815D
:101F50004281538184E090E00AC0F5018081918143
:101F60009C01442737FD4095542F82E090E0A80E55
:101F7000B91E9FE6F92257FF09C05095409530954C
:101F800021953F4F4F4F5F4FE0E8FE2ACA01B9014C
:101F9000A1012AE030E00E941312D82ED21840C0CE
:101FA000953729F41F2D1F7E2AE030E01DC01F2D1C
:101FB000197F9F3661F0903720F4983509F0ACC056
:101FC0000FC0903739F0983709F0A6C004C028E058
:101FD00030E00AC0106114FD146020E130E004C05C
:101FE00014FD166020E132E017FF08C0F5016081A2
:101FF00071818281938144E050E008C0F5018081C5
:102000009181BC0180E090E042E050E0A40EB51E5A
:10201000A1010E941312D82ED2188FE7F82EF122B8
:10202000F6FE0BC05EEFF522D91438F4F4FE07C0BB
:10203000F2FC05C08FEEF82202C01D2D01C0192D43
:10204000F4FE0DC0FE01ED0DF11D8081803319F409
:1020500099EEF92208C01F5FF2FE05C003C08F2D64
:10206000867809F01F5F0F2DF3FC14C0F0FE0FC03F
:102070001E1510F09D2C0BC09D2C9E0C911A1E2D30
:1020800006C080E290E0B3010E94E7111F5F1E15B9
:10209000C0F304C01E1510F4E11A01C0EE2404FFC1
:1020A0000FC080E390E0B3010E94E71102FF1DC062
:1020B00001FD03C088E790E00EC088E590E00BC00A
:1020C000802F867891F001FF02C08BE201C080E290
:1020D000F7FC8DE290E0B3010E94E71106C080E3B7
:1020E00090E0B3010E94E7119A94D914C0F3DA94F6
:1020F000F101ED0DF11D808190E0B3010E94E71127
:10210000DD20A9F706C080E290E0B3010E94E7114C
:10211000EA94EE20C1F743CEF30166817781CB01CB
:102120002B960FB6F894DEBF0FBECDBFCF91DF91D7
:102130001F910F91FF90EF90DF90CF90BF90AF90E5
:102140009F908F907F906F905F904F903F902F90D7
:1021500008950F931F93CF93DF93689F8001699F2A
:10216000100D789F100D1124C8010E94C510EC01BC
:10217000009729F060E070E0A8010E94D511CE011F
:10218000DF91CF911F910F910895CF93DF93BC0101
:102190008230910510F462E070E0A0916E07B0917A
:1021A0006F07ED01E0E0F0E040E050E021C0888101
:1021B00099818617970769F48A819B81309719F076
:1021C0009383828304C090936F0780936E07FE0110
:1021D00034C06817790738F44115510519F0841790
:1021E000950708F4AC01FE018A819B819C01E901FD
:1021F0002097E9F641155105A9F1CA01861B970BF5
:10220000049708F4BA01E0E0F0E02AC08D919C91B7
:10221000119784179507F9F46417750781F41296DE
:102220008D919C911397309719F09383828304C00A
:1022300090936F0780936E07FD0132964FC0CA01DD
:10224000861B970BFD01E80FF91F619371930297AD
:102250008D939C9343C0FD01828193819C01D901A0
:102260001097A1F680916C0790916D07892B41F42E
:102270008091E7049091E80490936D0780936C0738
:102280004091E9045091EA044115510541F44DB7DC
:102290005EB78091E5049091E604481B590B2091AC
:1022A0006C0730916D0724173507B0F4CA01821B03
:1022B000930B8617970780F0AB014E5F5F4F841733
:1022C000950750F0420F531F50936D0740936C07D2
:1022D000F9016193719302C0E0E0F0E0CF01DF917A
:1022E000CF910895CF93DF93009709F450C0EC018C
:1022F00022971B821A82A0916E07B0916F071097E8
:1023000009F140E050E0AC17BD0708F1BB83AA8398
:10231000FE0121913191E20FF31FAE17BF0779F44F
:102320008D919C911197280F391F2E5F3F4F398354
:10233000288312968D919C9113979B838A834115D4
:10234000510571F4D0936F07C0936E0720C01296A9
:102350008D919C911397AD01009711F0DC01D3CFC3
:10236000FA01D383C28321913191E20FF31FCE177B
:10237000DF0769F488819981280F391F2E5F3F4F4D
:10238000FA01318320838A819B8193838283DF9149
:10239000CF910895FC010590615070400110D8F76D
:1023A000809590958E0F9F1F0895DC0101C06D935D
:1023B00041505040E0F70895FC0161507040019099
:1023C0000110D8F7809590958E0F9F1F08950F9359
:1023D0001F93CF93DF938C01EB018B8181FF1BC097
:1023E00082FF0DC02E813F818C819D812817390786
:1023F00064F4E881F9810193F983E88306C0E885F4
:10240000F985802F1995892B31F48E819F81019652
:102410009F838E8302C00FEF1FEFC801DF91CF9122
:102420001F910F910895FA01AA27283051F1203108
:1024300081F1E8946F936E7F6E5F7F4F8F4F9F4F58
:10244000AF4FB1E03ED0B4E03CD0670F781F891F9A
:102450009A1FA11D680F791F8A1F911DA11D6A0F68
:10246000711D811D911DA11D20D009F468943F911B
:102470002AE0269F11243019305D3193DEF6CF011A
:102480000895462F4770405D4193B3E00FD0C9F7E0
:10249000F6CF462F4F70405D4A3318F0495D31FD4D
:1024A0004052419302D0A9F7EACFB4E0A6959795A0
:1024B000879577956795BA95C9F700976105710576
:1024C00008959B01AC010A2E0694579547953795C0
:1024D0002795BA95C9F7620F731F841F951FA01D1A
:0624E0000895F894FFCFFF
:1024E600496E70757420766F6C74616765206572CD
:1024F600726F722100416E676C65206C696D69743C
:10250600206572726F7221004F766572686561741C
:10251600206572726F7221004F7574206F6620728B
:10252600616E6765206572726F722100436865632C
:102536006B73756D206572726F7221004F766572CE
:102546006C6F6164206572726F722100496E7374DC
:1025560072756374696F6E20636F6465206572724D
:102566006F722100434F4D4D5F54584641494C3AD6
:10257600204661696C6564207472616E736D69745E
:1025860020696E737472756374696F6E207061630F
:102596006B65742100434F4D4D5F54584552524F61
:1025A600523A20496E636F727265637420696E7366
:1025B6007472756374696F6E207061636B657421E4
:1025C60000434F4D4D5F52584641494C3A204661B3
:1025D600696C656420676574207374617475732013
:1025E6007061636B65742066726F6D2064657669D1
:1025F60063652100434F4D4D5F5258574149544939
:102606004E473A204E6F7720726563696576696E2C
:102616006720737461747573207061636B657421D0
:1026260000434F4D4D5F525854494D454F55543A0E
:10263600205468657265206973206E6F207374611B
:10264600747573207061636B65742100434F4D4D43
:102656005F5258434F52525550543A20496E636F59
:10266600727265637420737461747573207061632C
:102676006B657421005468697320697320756E6BED
:102686006E6F776E206572726F7220636F6465215C
:10269600000A0A526561642F57726974652065786D
:1026A600616D706C6520666F7220434D2D3531303B
:1026B6000A00256420202025640A0001000000008D
:1026C60000000000000001020203030303040404E7
:1026D60004040404040505050505050505050505A9
:1026E6000505050505060606060606060606060689
:1026F6000606060606060606060606060606060674
:102706000606060606070707070707070707070758
:102716000707070707070707070707070707070743
:102726000707070707070707070707070707070733
:102736000707070707070707070707070707070723
:102746000707070707080808080808080808080808
:1027560008080808080808080808080808080808F3
:1027660008080808080808080808080808080808E3
:1027760008080808080808080808080808080808D3
:1027860008080808080808080808080808080808C3
:1027960008080808080808080808080808080808B3
:1027A60008080808080808080808080808080808A3
:1027B6000808080808080808080808080808080893
:0C27C60008080808082000700700000048
:00000001FF
